{
  "_format": "hh-sol-artifact-1",
  "contractName": "PositionVault",
  "sourceName": "contracts/core/PositionVault.sol",
  "abi": [
    {
      "inputs": [],
      "stateMutability": "nonpayable",
      "type": "constructor"
    },
    {
      "anonymous": false,
      "inputs": [
        {
          "indexed": true,
          "internalType": "bytes32",
          "name": "key",
          "type": "bytes32"
        },
        {
          "indexed": false,
          "internalType": "bool",
          "name": "isPlus",
          "type": "bool"
        },
        {
          "indexed": false,
          "internalType": "uint256",
          "name": "amount",
          "type": "uint256"
        },
        {
          "indexed": false,
          "internalType": "uint256",
          "name": "reserveAmount",
          "type": "uint256"
        },
        {
          "indexed": false,
          "internalType": "uint256",
          "name": "collateral",
          "type": "uint256"
        },
        {
          "indexed": false,
          "internalType": "uint256",
          "name": "size",
          "type": "uint256"
        }
      ],
      "name": "AddOrRemoveCollateral",
      "type": "event"
    },
    {
      "anonymous": false,
      "inputs": [
        {
          "indexed": true,
          "internalType": "bytes32",
          "name": "key",
          "type": "bytes32"
        },
        {
          "indexed": false,
          "internalType": "bool",
          "name": "confirmDelayStatus",
          "type": "bool"
        },
        {
          "indexed": false,
          "internalType": "uint256",
          "name": "collateral",
          "type": "uint256"
        },
        {
          "indexed": false,
          "internalType": "uint256",
          "name": "size",
          "type": "uint256"
        }
      ],
      "name": "AddPosition",
      "type": "event"
    },
    {
      "anonymous": false,
      "inputs": [
        {
          "indexed": false,
          "internalType": "bytes32",
          "name": "key",
          "type": "bytes32"
        },
        {
          "indexed": false,
          "internalType": "uint256[]",
          "name": "data",
          "type": "uint256[]"
        }
      ],
      "name": "AddTrailingStop",
      "type": "event"
    },
    {
      "anonymous": false,
      "inputs": [
        {
          "indexed": true,
          "internalType": "bytes32",
          "name": "key",
          "type": "bytes32"
        },
        {
          "indexed": false,
          "internalType": "bool",
          "name": "confirmDelayStatus",
          "type": "bool"
        },
        {
          "indexed": false,
          "internalType": "uint256",
          "name": "collateral",
          "type": "uint256"
        },
        {
          "indexed": false,
          "internalType": "uint256",
          "name": "size",
          "type": "uint256"
        },
        {
          "indexed": false,
          "internalType": "uint256",
          "name": "feeUsd",
          "type": "uint256"
        }
      ],
      "name": "ConfirmDelayTransaction",
      "type": "event"
    },
    {
      "anonymous": false,
      "inputs": [
        {
          "indexed": true,
          "internalType": "address",
          "name": "token",
          "type": "address"
        },
        {
          "indexed": false,
          "internalType": "bool",
          "name": "isLong",
          "type": "bool"
        },
        {
          "indexed": false,
          "internalType": "uint256",
          "name": "amount",
          "type": "uint256"
        }
      ],
      "name": "DecreasePoolAmount",
      "type": "event"
    },
    {
      "anonymous": false,
      "inputs": [
        {
          "indexed": true,
          "internalType": "address",
          "name": "token",
          "type": "address"
        },
        {
          "indexed": false,
          "internalType": "bool",
          "name": "isLong",
          "type": "bool"
        },
        {
          "indexed": false,
          "internalType": "uint256",
          "name": "amount",
          "type": "uint256"
        }
      ],
      "name": "DecreaseReservedAmount",
      "type": "event"
    },
    {
      "anonymous": false,
      "inputs": [
        {
          "indexed": true,
          "internalType": "address",
          "name": "token",
          "type": "address"
        },
        {
          "indexed": false,
          "internalType": "bool",
          "name": "isLong",
          "type": "bool"
        },
        {
          "indexed": false,
          "internalType": "uint256",
          "name": "amount",
          "type": "uint256"
        }
      ],
      "name": "IncreasePoolAmount",
      "type": "event"
    },
    {
      "anonymous": false,
      "inputs": [
        {
          "indexed": true,
          "internalType": "address",
          "name": "token",
          "type": "address"
        },
        {
          "indexed": false,
          "internalType": "bool",
          "name": "isLong",
          "type": "bool"
        },
        {
          "indexed": false,
          "internalType": "uint256",
          "name": "amount",
          "type": "uint256"
        }
      ],
      "name": "IncreaseReservedAmount",
      "type": "event"
    },
    {
      "anonymous": false,
      "inputs": [
        {
          "indexed": false,
          "internalType": "bytes32",
          "name": "key",
          "type": "bytes32"
        },
        {
          "indexed": true,
          "internalType": "address",
          "name": "account",
          "type": "address"
        },
        {
          "indexed": false,
          "internalType": "address",
          "name": "indexToken",
          "type": "address"
        },
        {
          "indexed": false,
          "internalType": "bool",
          "name": "isLong",
          "type": "bool"
        },
        {
          "indexed": false,
          "internalType": "uint256",
          "name": "posId",
          "type": "uint256"
        },
        {
          "indexed": false,
          "internalType": "uint256",
          "name": "positionType",
          "type": "uint256"
        },
        {
          "indexed": false,
          "internalType": "enum OrderStatus",
          "name": "orderStatus",
          "type": "uint8"
        },
        {
          "indexed": false,
          "internalType": "uint256[]",
          "name": "triggerData",
          "type": "uint256[]"
        }
      ],
      "name": "NewOrder",
      "type": "event"
    },
    {
      "anonymous": false,
      "inputs": [
        {
          "indexed": false,
          "internalType": "bytes32",
          "name": "key",
          "type": "bytes32"
        },
        {
          "indexed": false,
          "internalType": "uint256",
          "name": "positionType",
          "type": "uint256"
        },
        {
          "indexed": false,
          "internalType": "enum OrderStatus",
          "name": "orderStatus",
          "type": "uint8"
        }
      ],
      "name": "UpdateOrder",
      "type": "event"
    },
    {
      "anonymous": false,
      "inputs": [
        {
          "indexed": true,
          "internalType": "address",
          "name": "token",
          "type": "address"
        },
        {
          "indexed": false,
          "internalType": "bool",
          "name": "isLong",
          "type": "bool"
        },
        {
          "indexed": false,
          "internalType": "uint256",
          "name": "amount",
          "type": "uint256"
        }
      ],
      "name": "UpdatePoolAmount",
      "type": "event"
    },
    {
      "anonymous": false,
      "inputs": [
        {
          "indexed": true,
          "internalType": "address",
          "name": "token",
          "type": "address"
        },
        {
          "indexed": false,
          "internalType": "bool",
          "name": "isLong",
          "type": "bool"
        },
        {
          "indexed": false,
          "internalType": "uint256",
          "name": "amount",
          "type": "uint256"
        }
      ],
      "name": "UpdateReservedAmount",
      "type": "event"
    },
    {
      "anonymous": false,
      "inputs": [
        {
          "indexed": false,
          "internalType": "bytes32",
          "name": "key",
          "type": "bytes32"
        },
        {
          "indexed": false,
          "internalType": "uint256",
          "name": "stpPrice",
          "type": "uint256"
        }
      ],
      "name": "UpdateTrailingStop",
      "type": "event"
    },
    {
      "inputs": [],
      "name": "BASIS_POINTS_DIVISOR",
      "outputs": [
        {
          "internalType": "uint256",
          "name": "",
          "type": "uint256"
        }
      ],
      "stateMutability": "view",
      "type": "function"
    },
    {
      "inputs": [],
      "name": "DEFAULT_FUNDING_RATE_FACTOR",
      "outputs": [
        {
          "internalType": "uint256",
          "name": "",
          "type": "uint256"
        }
      ],
      "stateMutability": "view",
      "type": "function"
    },
    {
      "inputs": [],
      "name": "DEFAULT_MAX_OPEN_INTEREST",
      "outputs": [
        {
          "internalType": "uint256",
          "name": "",
          "type": "uint256"
        }
      ],
      "stateMutability": "view",
      "type": "function"
    },
    {
      "inputs": [],
      "name": "DEFAULT_VLP_PRICE",
      "outputs": [
        {
          "internalType": "uint256",
          "name": "",
          "type": "uint256"
        }
      ],
      "stateMutability": "view",
      "type": "function"
    },
    {
      "inputs": [],
      "name": "FUNDING_RATE_PRECISION",
      "outputs": [
        {
          "internalType": "uint256",
          "name": "",
          "type": "uint256"
        }
      ],
      "stateMutability": "view",
      "type": "function"
    },
    {
      "inputs": [],
      "name": "LIQUIDATE_FEE_EXCEED",
      "outputs": [
        {
          "internalType": "uint256",
          "name": "",
          "type": "uint256"
        }
      ],
      "stateMutability": "view",
      "type": "function"
    },
    {
      "inputs": [],
      "name": "LIQUIDATE_NONE_EXCEED",
      "outputs": [
        {
          "internalType": "uint256",
          "name": "",
          "type": "uint256"
        }
      ],
      "stateMutability": "view",
      "type": "function"
    },
    {
      "inputs": [],
      "name": "LIQUIDATE_THRESHOLD_EXCEED",
      "outputs": [
        {
          "internalType": "uint256",
          "name": "",
          "type": "uint256"
        }
      ],
      "stateMutability": "view",
      "type": "function"
    },
    {
      "inputs": [],
      "name": "MAX_COOLDOWN_DURATION",
      "outputs": [
        {
          "internalType": "uint256",
          "name": "",
          "type": "uint256"
        }
      ],
      "stateMutability": "view",
      "type": "function"
    },
    {
      "inputs": [],
      "name": "MAX_DELTA_TIME",
      "outputs": [
        {
          "internalType": "uint256",
          "name": "",
          "type": "uint256"
        }
      ],
      "stateMutability": "view",
      "type": "function"
    },
    {
      "inputs": [],
      "name": "MAX_DEPOSIT_FEE",
      "outputs": [
        {
          "internalType": "uint256",
          "name": "",
          "type": "uint256"
        }
      ],
      "stateMutability": "view",
      "type": "function"
    },
    {
      "inputs": [],
      "name": "MAX_FEE_BASIS_POINTS",
      "outputs": [
        {
          "internalType": "uint256",
          "name": "",
          "type": "uint256"
        }
      ],
      "stateMutability": "view",
      "type": "function"
    },
    {
      "inputs": [],
      "name": "MAX_FEE_REWARD_BASIS_POINTS",
      "outputs": [
        {
          "internalType": "uint256",
          "name": "",
          "type": "uint256"
        }
      ],
      "stateMutability": "view",
      "type": "function"
    },
    {
      "inputs": [],
      "name": "MAX_FUNDING_RATE_FACTOR",
      "outputs": [
        {
          "internalType": "uint256",
          "name": "",
          "type": "uint256"
        }
      ],
      "stateMutability": "view",
      "type": "function"
    },
    {
      "inputs": [],
      "name": "MAX_FUNDING_RATE_INTERVAL",
      "outputs": [
        {
          "internalType": "uint256",
          "name": "",
          "type": "uint256"
        }
      ],
      "stateMutability": "view",
      "type": "function"
    },
    {
      "inputs": [],
      "name": "MAX_LIQUIDATION_FEE_USD",
      "outputs": [
        {
          "internalType": "uint256",
          "name": "",
          "type": "uint256"
        }
      ],
      "stateMutability": "view",
      "type": "function"
    },
    {
      "inputs": [],
      "name": "MAX_STAKING_FEE",
      "outputs": [
        {
          "internalType": "uint256",
          "name": "",
          "type": "uint256"
        }
      ],
      "stateMutability": "view",
      "type": "function"
    },
    {
      "inputs": [],
      "name": "MAX_TOKENFARM_COOLDOWN_DURATION",
      "outputs": [
        {
          "internalType": "uint256",
          "name": "",
          "type": "uint256"
        }
      ],
      "stateMutability": "view",
      "type": "function"
    },
    {
      "inputs": [],
      "name": "MAX_TRIGGER_GAS_FEE",
      "outputs": [
        {
          "internalType": "uint256",
          "name": "",
          "type": "uint256"
        }
      ],
      "stateMutability": "view",
      "type": "function"
    },
    {
      "inputs": [],
      "name": "MAX_VESTING_DURATION",
      "outputs": [
        {
          "internalType": "uint256",
          "name": "",
          "type": "uint256"
        }
      ],
      "stateMutability": "view",
      "type": "function"
    },
    {
      "inputs": [],
      "name": "MIN_FEE_REWARD_BASIS_POINTS",
      "outputs": [
        {
          "internalType": "uint256",
          "name": "",
          "type": "uint256"
        }
      ],
      "stateMutability": "view",
      "type": "function"
    },
    {
      "inputs": [],
      "name": "MIN_FUNDING_RATE_INTERVAL",
      "outputs": [
        {
          "internalType": "uint256",
          "name": "",
          "type": "uint256"
        }
      ],
      "stateMutability": "view",
      "type": "function"
    },
    {
      "inputs": [],
      "name": "MIN_LEVERAGE",
      "outputs": [
        {
          "internalType": "uint256",
          "name": "",
          "type": "uint256"
        }
      ],
      "stateMutability": "view",
      "type": "function"
    },
    {
      "inputs": [],
      "name": "ORDER_FILLED",
      "outputs": [
        {
          "internalType": "uint8",
          "name": "",
          "type": "uint8"
        }
      ],
      "stateMutability": "view",
      "type": "function"
    },
    {
      "inputs": [],
      "name": "ORDER_NOT_FILLED",
      "outputs": [
        {
          "internalType": "uint8",
          "name": "",
          "type": "uint8"
        }
      ],
      "stateMutability": "view",
      "type": "function"
    },
    {
      "inputs": [],
      "name": "POSITION_LIMIT",
      "outputs": [
        {
          "internalType": "uint256",
          "name": "",
          "type": "uint256"
        }
      ],
      "stateMutability": "view",
      "type": "function"
    },
    {
      "inputs": [],
      "name": "POSITION_MARKET",
      "outputs": [
        {
          "internalType": "uint256",
          "name": "",
          "type": "uint256"
        }
      ],
      "stateMutability": "view",
      "type": "function"
    },
    {
      "inputs": [],
      "name": "POSITION_STOP_LIMIT",
      "outputs": [
        {
          "internalType": "uint256",
          "name": "",
          "type": "uint256"
        }
      ],
      "stateMutability": "view",
      "type": "function"
    },
    {
      "inputs": [],
      "name": "POSITION_STOP_MARKET",
      "outputs": [
        {
          "internalType": "uint256",
          "name": "",
          "type": "uint256"
        }
      ],
      "stateMutability": "view",
      "type": "function"
    },
    {
      "inputs": [],
      "name": "POSITION_TRAILING_STOP",
      "outputs": [
        {
          "internalType": "uint256",
          "name": "",
          "type": "uint256"
        }
      ],
      "stateMutability": "view",
      "type": "function"
    },
    {
      "inputs": [],
      "name": "PRICE_PRECISION",
      "outputs": [
        {
          "internalType": "uint256",
          "name": "",
          "type": "uint256"
        }
      ],
      "stateMutability": "view",
      "type": "function"
    },
    {
      "inputs": [],
      "name": "STAKING_PID_FOR_CHARGE_FEE",
      "outputs": [
        {
          "internalType": "uint8",
          "name": "",
          "type": "uint8"
        }
      ],
      "stateMutability": "view",
      "type": "function"
    },
    {
      "inputs": [],
      "name": "TRAILING_STOP_TYPE_AMOUNT",
      "outputs": [
        {
          "internalType": "uint256",
          "name": "",
          "type": "uint256"
        }
      ],
      "stateMutability": "view",
      "type": "function"
    },
    {
      "inputs": [],
      "name": "TRAILING_STOP_TYPE_PERCENT",
      "outputs": [
        {
          "internalType": "uint256",
          "name": "",
          "type": "uint256"
        }
      ],
      "stateMutability": "view",
      "type": "function"
    },
    {
      "inputs": [],
      "name": "VLP_DECIMALS",
      "outputs": [
        {
          "internalType": "uint256",
          "name": "",
          "type": "uint256"
        }
      ],
      "stateMutability": "view",
      "type": "function"
    },
    {
      "inputs": [],
      "name": "ZERO_ADDRESS",
      "outputs": [
        {
          "internalType": "address",
          "name": "",
          "type": "address"
        }
      ],
      "stateMutability": "view",
      "type": "function"
    },
    {
      "inputs": [
        {
          "internalType": "address",
          "name": "_account",
          "type": "address"
        },
        {
          "internalType": "address",
          "name": "_indexToken",
          "type": "address"
        },
        {
          "internalType": "bool",
          "name": "_isLong",
          "type": "bool"
        },
        {
          "internalType": "uint256",
          "name": "_posId",
          "type": "uint256"
        },
        {
          "internalType": "bool",
          "name": "isPlus",
          "type": "bool"
        },
        {
          "internalType": "uint256",
          "name": "_amount",
          "type": "uint256"
        }
      ],
      "name": "addOrRemoveCollateral",
      "outputs": [],
      "stateMutability": "nonpayable",
      "type": "function"
    },
    {
      "inputs": [
        {
          "internalType": "address",
          "name": "_account",
          "type": "address"
        },
        {
          "internalType": "address",
          "name": "_indexToken",
          "type": "address"
        },
        {
          "internalType": "bool",
          "name": "_isLong",
          "type": "bool"
        },
        {
          "internalType": "uint256",
          "name": "_posId",
          "type": "uint256"
        },
        {
          "internalType": "uint256",
          "name": "_collateralDelta",
          "type": "uint256"
        },
        {
          "internalType": "uint256",
          "name": "_sizeDelta",
          "type": "uint256"
        }
      ],
      "name": "addPosition",
      "outputs": [],
      "stateMutability": "nonpayable",
      "type": "function"
    },
    {
      "inputs": [
        {
          "internalType": "address",
          "name": "_account",
          "type": "address"
        },
        {
          "internalType": "address",
          "name": "_indexToken",
          "type": "address"
        },
        {
          "internalType": "bool",
          "name": "_isLong",
          "type": "bool"
        },
        {
          "internalType": "uint256",
          "name": "_posId",
          "type": "uint256"
        },
        {
          "internalType": "uint256[]",
          "name": "_params",
          "type": "uint256[]"
        }
      ],
      "name": "addTrailingStop",
      "outputs": [],
      "stateMutability": "nonpayable",
      "type": "function"
    },
    {
      "inputs": [
        {
          "internalType": "address",
          "name": "_account",
          "type": "address"
        },
        {
          "internalType": "address",
          "name": "_indexToken",
          "type": "address"
        },
        {
          "internalType": "bool",
          "name": "_isLong",
          "type": "bool"
        },
        {
          "internalType": "uint256",
          "name": "_posId",
          "type": "uint256"
        }
      ],
      "name": "cancelPendingOrder",
      "outputs": [],
      "stateMutability": "nonpayable",
      "type": "function"
    },
    {
      "inputs": [
        {
          "internalType": "address",
          "name": "_account",
          "type": "address"
        },
        {
          "internalType": "address",
          "name": "_indexToken",
          "type": "address"
        },
        {
          "internalType": "bool",
          "name": "_isLong",
          "type": "bool"
        },
        {
          "internalType": "uint256",
          "name": "_posId",
          "type": "uint256"
        }
      ],
      "name": "confirmDelayTransaction",
      "outputs": [],
      "stateMutability": "nonpayable",
      "type": "function"
    },
    {
      "inputs": [
        {
          "internalType": "bytes32",
          "name": "",
          "type": "bytes32"
        }
      ],
      "name": "confirms",
      "outputs": [
        {
          "internalType": "bool",
          "name": "confirmDelayStatus",
          "type": "bool"
        },
        {
          "internalType": "uint256",
          "name": "pendingDelayCollateral",
          "type": "uint256"
        },
        {
          "internalType": "uint256",
          "name": "pendingDelaySize",
          "type": "uint256"
        },
        {
          "internalType": "uint256",
          "name": "delayStartTime",
          "type": "uint256"
        }
      ],
      "stateMutability": "view",
      "type": "function"
    },
    {
      "inputs": [
        {
          "internalType": "address",
          "name": "_account",
          "type": "address"
        },
        {
          "internalType": "address",
          "name": "_indexToken",
          "type": "address"
        },
        {
          "internalType": "uint256",
          "name": "_sizeDelta",
          "type": "uint256"
        },
        {
          "internalType": "bool",
          "name": "_isLong",
          "type": "bool"
        },
        {
          "internalType": "uint256",
          "name": "_posId",
          "type": "uint256"
        }
      ],
      "name": "decreasePosition",
      "outputs": [],
      "stateMutability": "nonpayable",
      "type": "function"
    },
    {
      "inputs": [
        {
          "internalType": "address",
          "name": "_account",
          "type": "address"
        },
        {
          "internalType": "address",
          "name": "_indexToken",
          "type": "address"
        },
        {
          "internalType": "bool",
          "name": "_isLong",
          "type": "bool"
        },
        {
          "internalType": "uint256",
          "name": "_posId",
          "type": "uint256"
        }
      ],
      "name": "getPosition",
      "outputs": [
        {
          "components": [
            {
              "internalType": "address",
              "name": "owner",
              "type": "address"
            },
            {
              "internalType": "address",
              "name": "refer",
              "type": "address"
            },
            {
              "internalType": "int256",
              "name": "realisedPnl",
              "type": "int256"
            },
            {
              "internalType": "uint256",
              "name": "averagePrice",
              "type": "uint256"
            },
            {
              "internalType": "uint256",
              "name": "collateral",
              "type": "uint256"
            },
            {
              "internalType": "uint256",
              "name": "entryFundingRate",
              "type": "uint256"
            },
            {
              "internalType": "uint256",
              "name": "lastIncreasedTime",
              "type": "uint256"
            },
            {
              "internalType": "uint256",
              "name": "lastPrice",
              "type": "uint256"
            },
            {
              "internalType": "uint256",
              "name": "reserveAmount",
              "type": "uint256"
            },
            {
              "internalType": "uint256",
              "name": "size",
              "type": "uint256"
            }
          ],
          "internalType": "struct Position",
          "name": "",
          "type": "tuple"
        },
        {
          "components": [
            {
              "internalType": "enum OrderStatus",
              "name": "status",
              "type": "uint8"
            },
            {
              "internalType": "uint256",
              "name": "lmtPrice",
              "type": "uint256"
            },
            {
              "internalType": "uint256",
              "name": "pendingSize",
              "type": "uint256"
            },
            {
              "internalType": "uint256",
              "name": "pendingCollateral",
              "type": "uint256"
            },
            {
              "internalType": "uint256",
              "name": "positionType",
              "type": "uint256"
            },
            {
              "internalType": "uint256",
              "name": "stepAmount",
              "type": "uint256"
            },
            {
              "internalType": "uint256",
              "name": "stepType",
              "type": "uint256"
            },
            {
              "internalType": "uint256",
              "name": "stpPrice",
              "type": "uint256"
            }
          ],
          "internalType": "struct OrderInfo",
          "name": "",
          "type": "tuple"
        },
        {
          "components": [
            {
              "internalType": "bool",
              "name": "confirmDelayStatus",
              "type": "bool"
            },
            {
              "internalType": "uint256",
              "name": "pendingDelayCollateral",
              "type": "uint256"
            },
            {
              "internalType": "uint256",
              "name": "pendingDelaySize",
              "type": "uint256"
            },
            {
              "internalType": "uint256",
              "name": "delayStartTime",
              "type": "uint256"
            }
          ],
          "internalType": "struct ConfirmInfo",
          "name": "",
          "type": "tuple"
        }
      ],
      "stateMutability": "view",
      "type": "function"
    },
    {
      "inputs": [
        {
          "internalType": "contract IPriceManager",
          "name": "_priceManager",
          "type": "address"
        },
        {
          "internalType": "contract ISettingsManager",
          "name": "_settingsManager",
          "type": "address"
        },
        {
          "internalType": "contract ITriggerOrderManager",
          "name": "_triggerOrderManager",
          "type": "address"
        },
        {
          "internalType": "contract IVault",
          "name": "_vault",
          "type": "address"
        },
        {
          "internalType": "contract IVaultUtils",
          "name": "_vaultUtils",
          "type": "address"
        }
      ],
      "name": "initialize",
      "outputs": [],
      "stateMutability": "nonpayable",
      "type": "function"
    },
    {
      "inputs": [],
      "name": "lastPosId",
      "outputs": [
        {
          "internalType": "uint256",
          "name": "",
          "type": "uint256"
        }
      ],
      "stateMutability": "view",
      "type": "function"
    },
    {
      "inputs": [
        {
          "internalType": "address",
          "name": "_account",
          "type": "address"
        },
        {
          "internalType": "address",
          "name": "_indexToken",
          "type": "address"
        },
        {
          "internalType": "bool",
          "name": "_isLong",
          "type": "bool"
        },
        {
          "internalType": "uint256",
          "name": "_posId",
          "type": "uint256"
        }
      ],
      "name": "liquidatePosition",
      "outputs": [],
      "stateMutability": "nonpayable",
      "type": "function"
    },
    {
      "inputs": [
        {
          "internalType": "address",
          "name": "_account",
          "type": "address"
        },
        {
          "internalType": "address",
          "name": "_indexToken",
          "type": "address"
        },
        {
          "internalType": "bool",
          "name": "_isLong",
          "type": "bool"
        },
        {
          "internalType": "enum OrderType",
          "name": "_orderType",
          "type": "uint8"
        },
        {
          "internalType": "uint256[]",
          "name": "_params",
          "type": "uint256[]"
        },
        {
          "internalType": "address",
          "name": "_refer",
          "type": "address"
        }
      ],
      "name": "newPositionOrder",
      "outputs": [],
      "stateMutability": "nonpayable",
      "type": "function"
    },
    {
      "inputs": [
        {
          "internalType": "bytes32",
          "name": "",
          "type": "bytes32"
        }
      ],
      "name": "orders",
      "outputs": [
        {
          "internalType": "enum OrderStatus",
          "name": "status",
          "type": "uint8"
        },
        {
          "internalType": "uint256",
          "name": "lmtPrice",
          "type": "uint256"
        },
        {
          "internalType": "uint256",
          "name": "pendingSize",
          "type": "uint256"
        },
        {
          "internalType": "uint256",
          "name": "pendingCollateral",
          "type": "uint256"
        },
        {
          "internalType": "uint256",
          "name": "positionType",
          "type": "uint256"
        },
        {
          "internalType": "uint256",
          "name": "stepAmount",
          "type": "uint256"
        },
        {
          "internalType": "uint256",
          "name": "stepType",
          "type": "uint256"
        },
        {
          "internalType": "uint256",
          "name": "stpPrice",
          "type": "uint256"
        }
      ],
      "stateMutability": "view",
      "type": "function"
    },
    {
      "inputs": [
        {
          "internalType": "address",
          "name": "",
          "type": "address"
        },
        {
          "internalType": "bool",
          "name": "",
          "type": "bool"
        }
      ],
      "name": "poolAmounts",
      "outputs": [
        {
          "internalType": "uint256",
          "name": "",
          "type": "uint256"
        }
      ],
      "stateMutability": "view",
      "type": "function"
    },
    {
      "inputs": [
        {
          "internalType": "bytes32",
          "name": "",
          "type": "bytes32"
        }
      ],
      "name": "positions",
      "outputs": [
        {
          "internalType": "address",
          "name": "owner",
          "type": "address"
        },
        {
          "internalType": "address",
          "name": "refer",
          "type": "address"
        },
        {
          "internalType": "int256",
          "name": "realisedPnl",
          "type": "int256"
        },
        {
          "internalType": "uint256",
          "name": "averagePrice",
          "type": "uint256"
        },
        {
          "internalType": "uint256",
          "name": "collateral",
          "type": "uint256"
        },
        {
          "internalType": "uint256",
          "name": "entryFundingRate",
          "type": "uint256"
        },
        {
          "internalType": "uint256",
          "name": "lastIncreasedTime",
          "type": "uint256"
        },
        {
          "internalType": "uint256",
          "name": "lastPrice",
          "type": "uint256"
        },
        {
          "internalType": "uint256",
          "name": "reserveAmount",
          "type": "uint256"
        },
        {
          "internalType": "uint256",
          "name": "size",
          "type": "uint256"
        }
      ],
      "stateMutability": "view",
      "type": "function"
    },
    {
      "inputs": [
        {
          "internalType": "address",
          "name": "",
          "type": "address"
        },
        {
          "internalType": "bool",
          "name": "",
          "type": "bool"
        }
      ],
      "name": "reservedAmounts",
      "outputs": [
        {
          "internalType": "uint256",
          "name": "",
          "type": "uint256"
        }
      ],
      "stateMutability": "view",
      "type": "function"
    },
    {
      "inputs": [
        {
          "internalType": "address",
          "name": "_account",
          "type": "address"
        },
        {
          "internalType": "address",
          "name": "_indexToken",
          "type": "address"
        },
        {
          "internalType": "bool",
          "name": "_isLong",
          "type": "bool"
        },
        {
          "internalType": "uint256",
          "name": "_posId",
          "type": "uint256"
        }
      ],
      "name": "triggerPosition",
      "outputs": [],
      "stateMutability": "nonpayable",
      "type": "function"
    },
    {
      "inputs": [
        {
          "internalType": "address",
          "name": "_account",
          "type": "address"
        },
        {
          "internalType": "address",
          "name": "_indexToken",
          "type": "address"
        },
        {
          "internalType": "bool",
          "name": "_isLong",
          "type": "bool"
        },
        {
          "internalType": "uint256",
          "name": "_posId",
          "type": "uint256"
        }
      ],
      "name": "updateTrailingStop",
      "outputs": [],
      "stateMutability": "nonpayable",
      "type": "function"
    }
  ],
  "bytecode": "0x608060405234801561001057600080fd5b506001600055614761806100256000396000f3fe608060405234801561001057600080fd5b50600436106103425760003560e01c806396279aba116101b8578063c6d87dd511610104578063e062e4d4116100a2578063eeffe4691161007c578063eeffe469146106d6578063f055eca3146106df578063f49882791461039e578063fce28c101461073a57600080fd5b8063e062e4d4146106b0578063e7554f03146104f5578063e840117f146106c357600080fd5b8063d1636ae7116100de578063d1636ae714610690578063d1e6a2721461069f578063dac054971461069f578063df2cf170146106a757600080fd5b8063c6d87dd5146103b9578063c8cbdd3414610381578063c923f4b61461066557600080fd5b8063abd7813911610171578063ba2ac40d1161014b578063ba2ac40d14610624578063bd8224c714610637578063c00239911461064a578063c201cf191461065d57600080fd5b8063abd78139146104f5578063b194d13d146103c2578063b4e76d091461061157600080fd5b806396279aba146105385780639716815f146105405780639c3f1e90146105535780639f4d7e2f146105bc578063a272683c146105e7578063a6b4f2ce1461060957600080fd5b80633d8b95951161029257806365d7aae1116102305780636e8ffe621161020a5780636e8ffe62146105115780637cd0814b146105195780638a39735a146103b957806395082d251461052457600080fd5b806365d7aae1146103815780636be232551461039e5780636be6026b1461050757600080fd5b8063538ba4f91161026c578063538ba4f9146104cb578063559e2f1f146104eb5780635962e8af146104f55780635dceb8d3146104fd57600080fd5b80633d8b9595146103f75780634befe2ca146103ff578063514ea4bf1461040857600080fd5b80631c155ff9116102ff5780632ab12872116102d95780632ab12872146103c25780632e247a61146103dc57806333d44cb4146103ef57806334c1557d146103b957600080fd5b80631c155ff9146103a65780631e9049cf146103475780632a62b52d146103b957600080fd5b806304799c991461034757806307c5875214610364578063095d390b1461036c578063126082cf146103815780631459457a1461038b5780631a465e861461039e575b600080fd5b6103516202a30081565b6040519081526020015b60405180910390f35b610351610743565b61037f61037a366004613d51565b61075e565b005b610351620186a081565b61037f610399366004613da2565b610c43565b610351600181565b61037f6103b4366004613e13565b610ec9565b61035161271081565b6103ca600181565b60405160ff909116815260200161035b565b61037f6103ea366004613e6e565b610f07565b610351601281565b6103ca600081565b61035161138881565b610476610416366004613ed3565b600960208190526000918252604090912080546001820154600283015460038401546004850154600586015460068701546007880154600889015498909901546001600160a01b039788169996909716979496939592949193909291908a565b604080516001600160a01b039b8c1681529a90991660208b0152978901969096526060880194909452608087019290925260a086015260c085015260e08401526101008301526101208201526101400161035b565b6104d3600081565b6040516001600160a01b03909116815260200161035b565b6103516224ea0081565b610351600081565b6103516201518081565b610351620f424081565b610351606481565b61035163039ada0081565b6103516c0c9f2c9cd04674edea4000000081565b610351600381565b61037f61054e366004613d51565b610fc0565b6105a8610561366004613ed3565b600b602052600090815260409020805460018201546002830154600384015460048501546005860154600687015460079097015460ff909616969495939492939192909188565b60405161035b989796959493929190613f16565b6103516105ca366004613f5a565b600860209081526000928352604080842090915290825290205481565b6105fa6105f5366004613d51565b6112ef565b60405161035b93929190613fe8565b610351600481565b61037f61061f366004614158565b611555565b61037f610632366004613d51565b61172f565b61037f6106453660046141d7565b611a15565b61037f610658366004613d51565b611d98565b610351611ed0565b610351610673366004613f5a565b600760209081526000928352604080842090915290825290205481565b61035167016345785d8a000081565b610351600281565b61035160015481565b61037f6106be366004613d51565b611eec565b61037f6106d1366004614247565b612468565b61035161c35081565b6107186106ed366004613ed3565b600a60205260009081526040902080546001820154600283015460039093015460ff90921692909184565b604080519415158552602085019390935291830152606082015260800161035b565b610351610e1081565b61075b6c0c9f2c9cd04674edea4000000060646142fc565b81565b6002600054141561078a5760405162461bcd60e51b81526004016107819061431b565b60405180910390fd5b60026000556003546040516301cf9fc360e51b81526001600160a01b0385811660048301528415156024830152909116906339f3f86090604401600060405180830381600087803b1580156107de57600080fd5b505af11580156107f2573d6000803e3d6000fd5b50505050600061080485858585612988565b600081815260096020818152604080842081516101408101835281546001600160a01b0390811682526001830154811694820194909452600282015481840152600382015460608201526004808301546080830152600583015460a083015260068084015460c0840152600784015460e084015260088401546101008401529290950154610120820152905491516365c18e7560e11b8152959650948493919092169163cb831cea916108c1918c918c918c918c91899101614352565b604080518083038186803b1580156108d857600080fd5b505afa1580156108ec573d6000803e3d6000fd5b505050506040513d601f19601f820116820180604052508101906109109190614383565b91509150600082141561095d5760405162461bcd60e51b81526020600482015260156024820152741b9bdd08195e18d95959081bdc88185b1b1bddd959605a1b6044820152606401610781565b600282141561098157610978888885610120015189896129e7565b50505050610c38565b60055460405163c5cbb10360e01b81526001600482015260006024820152604481018390526001600160a01b039091169063c5cbb10390606401600060405180830381600087803b1580156109d557600080fd5b505af11580156109e9573d6000803e3d6000fd5b505050506000620186a0600360009054906101000a90046001600160a01b03166001600160a01b031663bfd2ed016040518163ffffffff1660e01b815260040160206040518083038186803b158015610a4157600080fd5b505afa158015610a55573d6000803e3d6000fd5b505050506040513d601f19601f82011682018060405250810190610a7991906143a7565b610a8390846142fc565b610a8d91906143c0565b600554604051632f7442bb60e01b8152336004820152602481018390529192506001600160a01b031690632f7442bb90604401600060405180830381600087803b158015610ada57600080fd5b505af1158015610aee573d6000803e3d6000fd5b50506003546101208701516040516315b5c3db60e21b81526001600160a01b0390921693506356d70f6c9250610b2d918c918e918d91906004016143e2565b600060405180830381600087803b158015610b4757600080fd5b505af1158015610b5b573d6000803e3d6000fd5b50505050610b6a888884612f7f565b600654604051632af3cd7b60e11b81526001600160a01b03909116906355e79af690610ba0908c908c908c908c906004016143e2565b600060405180830381600087803b158015610bba57600080fd5b505af1158015610bce573d6000803e3d6000fd5b50505060009586525050600960208190526040852080546001600160a01b0319908116825560018201805490911690556002810186905560038101869055600481018690556005810186905560068101869055600781018690556008810186905501939093555050505b505060016000555050565b600654600160a01b900460ff1615610c8f5760405162461bcd60e51b815260206004820152600f60248201526e139bdd081a5b9a5d1a585b1a5e9959608a1b6044820152606401610781565b6001600160a01b0385163b610ce65760405162461bcd60e51b815260206004820152601f60248201527f70726963654d616e61676572206164647265737320697320696e76616c6964006044820152606401610781565b6001600160a01b0384163b610d485760405162461bcd60e51b815260206004820152602260248201527f73657474696e67734d616e61676572206164647265737320697320696e76616c6044820152611a5960f21b6064820152608401610781565b6001600160a01b0383163b610dae5760405162461bcd60e51b815260206004820152602660248201527f747269676765724f726465724d616e61676572206164647265737320697320696044820152651b9d985b1a5960d21b6064820152608401610781565b6001600160a01b0382163b610e055760405162461bcd60e51b815260206004820152601860248201527f7661756c74206164647265737320697320696e76616c696400000000000000006044820152606401610781565b6001600160a01b0381163b610e5c5760405162461bcd60e51b815260206004820152601d60248201527f7661756c745574696c73206164647265737320697320696e76616c69640000006044820152606401610781565b600280546001600160a01b039687166001600160a01b03199182161790915560038054958716958216959095179094556004805493861693851693909317909255600580549185169190931617909155600680546001600160a81b0319169190921617600160a01b179055565b6005546001600160a01b03163314610ef35760405162461bcd60e51b81526004016107819061440d565b610f0085858585856129e7565b5050505050565b6005546001600160a01b03163314610f315760405162461bcd60e51b81526004016107819061440d565b6000610f3f87878787612988565b6000818152600a6020908152604091829020426003820155805460ff1916600190811782558082018890556002820187905583519081529182018790529181018590529192509082907fd662ee78e5d7963dc411b5f2b01d437c8c955b3f4b401af229ee92090e015dd0906060015b60405180910390a25050505050505050565b60026000541415610fe35760405162461bcd60e51b81526004016107819061431b565b60026000908155610ff685858585612988565b6000818152600960209081526040808320600b90925280832060025491516331a4bf1d60e21b81526001600160a01b038a81166004830152959650929490939291169063c692fc749060240160206040518083038186803b15801561105a57600080fd5b505afa15801561106e573d6000803e3d6000fd5b505050506040513d601f19601f8201168201806040525081019061109291906143a7565b83549091506001600160a01b0316331480611123575060035460405163f3ae241560e01b81523360048201526001600160a01b039091169063f3ae24159060240160206040518083038186803b1580156110eb57600080fd5b505afa1580156110ff573d6000803e3d6000fd5b505050506040513d601f19601f82011682018060405250810190611123919061443c565b61116f5760405162461bcd60e51b815260206004820152601760248201527f7570646174655453746f70206e6f7420616c6c6f7765640000000000000000006044820152606401610781565b6006546040516335c0fbb960e01b81526001600160a01b03909116906335c0fbb9906111a8908b908b908b908b90600190600401614352565b60206040518083038186803b1580156111c057600080fd5b505afa1580156111d4573d6000803e3d6000fd5b505050506040513d601f19601f820116820180604052508101906111f8919061443c565b5085156112525760068201541561123957620186a08260050154620186a06112209190614460565b61122a90836142fc565b61123491906143c0565b611248565b60058201546112489082614460565b60078301556112a1565b60068201541561128c57620186a08260050154620186a06112739190614477565b61127d90836142fc565b61128791906143c0565b61129b565b600582015461129b9082614477565b60078301555b60078201546040805186815260208101929092527f709af56377ac0df3068a3f66ddd28cf16877624b5142758fa8726b4ed2a4762e910160405180910390a150506001600055505050505050565b61135760405180610140016040528060006001600160a01b0316815260200160006001600160a01b0316815260200160008152602001600081526020016000815260200160008152602001600081526020016000815260200160008152602001600081525090565b6113a06040805161010081019091528060008152602001600081526020016000815260200160008152602001600081526020016000815260200160008152602001600081525090565b6113cd60405180608001604052806000151581526020016000815260200160008152602001600081525090565b60006113db88888888612988565b600081815260096020818152604080842081516101408101835281546001600160a01b03908116825260018301541681850152600282015481840152600380830154606083015260048301546080830152600583015460a0830152600683015460c0830152600783015460e08301526008830154610100808401919091529290950154610120820152868652600b90935281852082519182019092528154959650919491929091839160ff9091169081111561149957611499613eec565b60038111156114aa576114aa613eec565b81526001828101546020808401919091526002808501546040808601919091526003808701546060808801919091526004880154608080890191909152600589015460a0890152600689015460c089015260079098015460e09097019690965260009a8b52600a84529981902081519687018252805460ff16151587529384015492860192909252820154908401529095015494810194909452919a91995091975095505050505050565b6005546001600160a01b0316331461157f5760405162461bcd60e51b81526004016107819061440d565b600061158d86868686612988565b6000818152600b6020526040908190206006549151638350888160e01b8152929350916001600160a01b03909116906383508881906115d8908a908a908a908a908a906004016144ca565b60206040518083038186803b1580156115f057600080fd5b505afa158015611604573d6000803e3d6000fd5b505050506040513d601f19601f82011682018060405250810190611628919061443c565b508260008151811061163c5761163c614505565b602002602001015181600301819055508260018151811061165f5761165f614505565b6020908102919091010151600282810191909155815460ff191660011782556004808301558351849190811061169757611697614505565b60200260200101518160060181905550826003815181106116ba576116ba614505565b60200260200101518160070181905550826004815181106116dd576116dd614505565b602002602001015181600501819055507f6ff8897249a1c0f2551229bc1bec79c4812b9f61a4ca0b5ebb9daeca1d6ade8e828460405161171e92919061451b565b60405180910390a150505050505050565b600260005414156117525760405162461bcd60e51b81526004016107819061431b565b6002600090815561176585858585612988565b60008181526009602052604090208054919250906001600160a01b0316331480611805575060035460405163f3ae241560e01b81523360048201526001600160a01b039091169063f3ae24159060240160206040518083038186803b1580156117cd57600080fd5b505afa1580156117e1573d6000803e3d6000fd5b505050506040513d601f19601f82011682018060405250810190611805919061443c565b61183f5760405162461bcd60e51b815260206004820152600b60248201526a1b9bdd08185b1b1bddd95960aa1b6044820152606401610781565b6000828152600a60205260409081902060065491516305d9cac560e51b815290916001600160a01b03169063bb3958a090611887908a908a908a908a90600190600401614352565b60206040518083038186803b15801561189f57600080fd5b505afa1580156118b3573d6000803e3d6000fd5b505050506040513d601f19601f820116820180604052508101906118d7919061443c565b506003546002820154600984015460058501546040516393ac4ef760e01b81526000946001600160a01b0316936393ac4ef793611920938e938e938e9390929091600401614534565b60206040518083038186803b15801561193857600080fd5b505afa15801561194c573d6000803e3d6000fd5b505050506040513d601f19601f8201168201806040525081019061197091906143a7565b90506119a388888385600101546119879190614477565b600286015460018801548a908c906001600160a01b0316613094565b815460ff19168255600060018301819055600283018190556040805182815260208101839052908101919091526060810182905284907f2f146aba63940cbe5db924d66bbb9831acad35366f2f97f31bf120c4bf0c630e9060800160405180910390a250506001600055505050505050565b6005546001600160a01b03163314611a3f5760405162461bcd60e51b81526004016107819061440d565b6000611a4d87878787612988565b60008181526009602052604090209091508315611b895782816004016000828254611a789190614477565b909155505060065460098201546004808401546040516353eec2bd60e01b81526001600160a01b03909416936353eec2bd93611ac09390929101918252602082015260400190565b60006040518083038186803b158015611ad857600080fd5b505afa158015611aec573d6000803e3d6000fd5b5050505082816008016000828254611b049190614477565b9091555050600554600182015460405163372508c560e11b81526001600160a01b0392831692636e4a118a92611b47928d9290911690889060009060040161456a565b600060405180830381600087803b158015611b6157600080fd5b505af1158015611b75573d6000803e3d6000fd5b50505050611b8487878561374a565b611d39565b82816004016000828254611b9d9190614460565b909155505060065460098201546004808401546040516353eec2bd60e01b81526001600160a01b03909416936353eec2bd93611be59390929101918252602082015260400190565b60006040518083038186803b158015611bfd57600080fd5b505afa158015611c11573d6000803e3d6000fd5b50506006546040516365c18e7560e11b81526001600160a01b03909116925063cb831cea9150611c4e908b908b908b908b90600190600401614352565b604080518083038186803b158015611c6557600080fd5b505afa158015611c79573d6000803e3d6000fd5b505050506040513d601f19601f82011682018060405250810190611c9d9190614383565b505082816008016000828254611cb39190614460565b909155505042600682015560055460018201546040516328b1e53d60e11b81526001600160a01b0392831692635163ca7a92611cfc928d9290911690600090899060040161456a565b600060405180830381600087803b158015611d1657600080fd5b505af1158015611d2a573d6000803e3d6000fd5b50505050611d39878785612f7f565b60088101546004820154600983015460408051881515815260208101889052908101939093526060830191909152608082015282907f0b39e931d16befa428a77b593310ac3e555c10e5555e389e35d32ebcbde0d9019060a001610fae565b6005546001600160a01b03163314611dc25760405162461bcd60e51b81526004016107819061440d565b6000611dd085858585612988565b6000818152600b602052604090209091506001815460ff166003811115611df957611df9613eec565b14611e375760405162461bcd60e51b815260206004820152600e60248201526d4e6f7420696e2050656e64696e6760901b6044820152606401610781565b600481600401541415611e5b57805460ff1916600217815560006004820155611e67565b805460ff191660031781555b60006003820181905560028201819055600182018190556007820155600481015481546040517f098396aa974f7e4132f86b1bee92e6b30b479daea0c7d033c6beb02e8f14af6d92611ec092869260ff90911690614593565b60405180910390a1505050505050565b61075b6c0c9f2c9cd04674edea400000006402540be4006142fc565b60026000541415611f0f5760405162461bcd60e51b81526004016107819061431b565b60026000556003546040516301cf9fc360e51b81526001600160a01b0385811660048301528415156024830152909116906339f3f86090604401600060405180830381600087803b158015611f6357600080fd5b505af1158015611f77573d6000803e3d6000fd5b505050506000611f8985858585612988565b600081815260096020818152604080842081516101408101835281546001600160a01b0390811682526001830154811682860152600283015482850152600383015460608301526004808401546080840152600584015460a084015260068085015460c0850152600785015460e085015260088501546101008501529390960154610120830152878752600b909452828620915492516348626a5360e01b81529697509590949391909216916348626a539161204d918c918c918c918c91016143e2565b60206040518083038186803b15801561206557600080fd5b505afa158015612079573d6000803e3d6000fd5b505050506040513d601f19601f8201168201806040525081019061209d91906145ae565b60048054604051630b1e9ebf60e31b815292935060009283926001600160a01b03909216916358f4f5f8916120da918e918e918e918e91016143e2565b6040805180830381600087803b1580156120f357600080fd5b505af1158015612107573d6000803e3d6000fd5b505050506040513d601f19601f8201168201806040525081019061212b91906145d1565b909250905060ff83166001148061213f5750815b80156121d4575084516001600160a01b03163314806121d4575060035460405163f3ae241560e01b81523360048201526001600160a01b039091169063f3ae24159060240160206040518083038186803b15801561219c57600080fd5b505afa1580156121b0573d6000803e3d6000fd5b505050506040513d601f19601f820116820180604052508101906121d4919061443c565b6122145760405162461bcd60e51b815260206004820152601160248201527074726967676572206e6f7420726561647960781b6044820152606401610781565b8115612245576122458a8a620186a08489610120015161223491906142fc565b61223e91906143c0565b8b8b6129e7565b60ff83166001141561241257600184600401541415612351576000600360009054906101000a90046001600160a01b03166001600160a01b03166393ac4ef78c8c8c89600201548b61012001518c60a001516040518763ffffffff1660e01b81526004016122b896959493929190614534565b60206040518083038186803b1580156122d057600080fd5b505afa1580156122e4573d6000803e3d6000fd5b505050506040513d601f19601f8201168201806040525081019061230891906143a7565b90506123308b8b83886003015461231f9190614477565b88600201548c8e8c60200151613094565b50600060038501819055600280860191909155845460ff1916178455612412565b6002846004015414156123b8576000600360009054906101000a90046001600160a01b03166001600160a01b03166393ac4ef78c8c8c89600201548b61012001518c60a001516040518763ffffffff1660e01b81526004016122b896959493929190614534565b6003846004015414156123d15760016004850155612412565b600484600401541415612412576123ef8a8a86600201548b8b6129e7565b60006004850181905560038501819055600280860191909155845460ff19161784555b600484015484546040517f098396aa974f7e4132f86b1bee92e6b30b479daea0c7d033c6beb02e8f14af6d9261244f928a9260ff90911690614593565b60405180910390a1505060016000555050505050505050565b6002600054141561248b5760405162461bcd60e51b81526004016107819061431b565b60026000556005546001600160a01b031633146124ba5760405162461bcd60e51b81526004016107819061440d565b60006124ca878787600154612988565b6000818152600b602090815260408083206009909252918290206006549251638e8a089f60e01b8152939450909290916001600160a01b031690638e8a089f90612521908a908c908b908b906001906004016145ff565b60206040518083038186803b15801561253957600080fd5b505afa15801561254d573d6000803e3d6000fd5b505050506040513d601f19601f82011682018060405250810190612571919061443c565b508460028151811061258557612585614505565b60200260200101518260030181905550846003815181106125a8576125a8614505565b6020908102919091010151600283015580546001600160a01b03808b166001600160a01b03199283161783556001830180549187169190921617905560008660048111156125f8576125f8613eec565b14156127e057600360009054906101000a90046001600160a01b03166001600160a01b031663365f9ef16040518163ffffffff1660e01b815260040160206040518083038186803b15801561264c57600080fd5b505afa158015612660573d6000803e3d6000fd5b505050506040513d601f19601f82011682018060405250810190612684919061443c565b6126d05760405162461bcd60e51b815260206004820152601960248201527f6d61726b6574206f72646572207761732064697361626c6564000000000000006044820152606401610781565b600082600401819055506000600360009054906101000a90046001600160a01b03166001600160a01b03166393ac4ef78b8b8b8760020154876009015488600501546040518763ffffffff1660e01b815260040161273396959493929190614534565b60206040518083038186803b15801561274b57600080fd5b505afa15801561275f573d6000803e3d6000fd5b505050506040513d601f19601f8201168201806040525081019061278391906143a7565b90506127bf8a8a838960028151811061279e5761279e614505565b60200260200101516127b09190614477565b86600201546001548d8b613094565b50600060038301819055600280840191909155825460ff19161782556128fd565b60018660048111156127f4576127f4613eec565b141561283457815460ff19166001908117835560048301558451859060009061281f5761281f614505565b602002602001015182600101819055506128fd565b600286600481111561284857612848613eec565b141561288a57815460ff191660019081178355600260048401558551869190811061287557612875614505565b602002602001015182600701819055506128fd565b600386600481111561289e5761289e613eec565b14156128fd57815460ff1916600117825560036004830155845185906000906128c9576128c9614505565b60200260200101518260010181905550846001815181106128ec576128ec614505565b602002602001015182600701819055505b600180600082825461290f9190614477565b92505081905550886001600160a01b03167fe508fdc8bb11e26fd52e43d09c05ba1b7a778fe93ba8a3814b608aa29c3e6cdd848a8a600180546129529190614460565b6004880154885460405161297096959493929160ff16908e90614653565b60405180910390a25050600160005550505050505050565b6040516bffffffffffffffffffffffff19606086811b8216602084015285901b16603482015282151560f81b6048820152604981018290526000906069016040516020818303038152906040528051906020012090505b949350505050565b6003546040516301cf9fc360e51b81526001600160a01b0386811660048301528415156024830152909116906339f3f86090604401600060405180830381600087803b158015612a3657600080fd5b505af1158015612a4a573d6000803e3d6000fd5b505050506000612a5c86868585612988565b6000818152600960208190526040909120600181015491810154929350916001600160a01b0390911690612aca5760405162461bcd60e51b8152602060048201526015602482015274706f736974696f6e2073697a65206973207a65726f60581b6044820152606401610781565b6003546040516315b5c3db60e21b81526001600160a01b03909116906356d70f6c90612b00908a908c908a908c906004016143e2565b600060405180830381600087803b158015612b1a57600080fd5b505af1158015612b2e573d6000803e3d6000fd5b50505050612b3d8786886137e1565b8160090154868360080154612b5291906142fc565b612b5c91906143c0565b826008016000828254612b6f9190614460565b909155506000905080612b858a8a8a8a8a6138ed565b9150915087846009015414612da8576003546040516334f32e2560e01b81526001600160a01b038b811660048301528915156024830152909116906334f32e259060440160206040518083038186803b158015612be157600080fd5b505afa158015612bf5573d6000803e3d6000fd5b505050506040513d601f19601f82011682018060405250810190612c1991906143a7565b846005018190555087846009016000828254612c359190614460565b909155505060065460098501546004808701546040516353eec2bd60e01b81526001600160a01b03909416936353eec2bd93612c7d9390929101918252602082015260400190565b60006040518083038186803b158015612c9557600080fd5b505afa158015612ca9573d6000803e3d6000fd5b50506006546040516365c18e7560e11b81526001600160a01b03909116925063cb831cea9150612ce6908d908d908c908c90600190600401614352565b604080518083038186803b158015612cfd57600080fd5b505afa158015612d11573d6000803e3d6000fd5b505050506040513d601f19601f82011682018060405250810190612d359190614383565b505060065460405163d94265c360e01b81526001600160a01b039091169063d94265c390612d71908d908d908c908c908f908990600401614534565b600060405180830381600087803b158015612d8b57600080fd5b505af1158015612d9f573d6000803e3d6000fd5b50505050612e6f565b600654604051632aab7bb560e11b81526001600160a01b0390911690635556f76a90612dde908d908d908c908c906004016143e2565b600060405180830381600087803b158015612df857600080fd5b505af1158015612e0c573d6000803e3d6000fd5b5050506000868152600960208190526040822080546001600160a01b031990811682556001820180549091169055600281018390556003810183905560048101839055600581018390556006810183905560078101839055600881018390550155505b818111612efe57818114612e9157612e918988612e8c8486614460565b612f7f565b6005546040516328b1e53d60e11b81526001600160a01b0390911690635163ca7a90612ec7908d9087908690889060040161456a565b600060405180830381600087803b158015612ee157600080fd5b505af1158015612ef5573d6000803e3d6000fd5b50505050612f73565b8015612f7357600554604051632d6135f960e11b81526001600160a01b038c8116600483015285811660248301526044820184905290911690635ac26bf290606401600060405180830381600087803b158015612f5a57600080fd5b505af1158015612f6e573d6000803e3d6000fd5b505050505b50505050505050505050565b6001600160a01b03831660009081526007602090815260408083208515158452909152902054811115612ff45760405162461bcd60e51b815260206004820152601a60248201527f5661756c743a20706f6f6c416d6f756e742065786365656465640000000000006044820152606401610781565b6001600160a01b0383166000908152600760209081526040808320851515845290915281208054839290613029908490614460565b90915550506001600160a01b038316600081815260076020908152604080832086151580855290835292819020548151938452918301919091527fa6079c98164e48df2afb683b813086c1a250aefaca7f7c5c0bf53d491003b33c91015b60405180910390a2505050565b6003546040516301cf9fc360e51b81526001600160a01b0388811660048301528415156024830152909116906339f3f86090604401600060405180830381600087803b1580156130e357600080fd5b505af11580156130f7573d6000803e3d6000fd5b50505050600061310988888587612988565b60008181526009602052604080822060025491516331a4bf1d60e21b81526001600160a01b038c8116600483015294955090939091169063c692fc749060240160206040518083038186803b15801561316157600080fd5b505afa158015613175573d6000803e3d6000fd5b505050506040513d601f19601f8201168201806040525081019061319991906143a7565b90508160090154600014156131b057600382018190555b600082600901541180156131c45750600087115b1561327b576002546009830154600384015460405163a9af372d60e01b81526001600160a01b038d811660048301526024820193909352604481019190915287151560648201526084810184905260a481018a905291169063a9af372d9060c40160206040518083038186803b15801561323d57600080fd5b505afa158015613251573d6000803e3d6000fd5b505050506040513d601f19601f8201168201806040525081019061327591906143a7565b60038301555b6000600360009054906101000a90046001600160a01b03166001600160a01b03166393ac4ef78c8c898c886009015489600501546040518763ffffffff1660e01b81526004016132d096959493929190614534565b60206040518083038186803b1580156132e857600080fd5b505afa1580156132fc573d6000803e3d6000fd5b505050506040513d601f19601f8201168201806040525081019061332091906143a7565b9050600061332e828b614460565b9050808460040160008282546133449190614477565b925050819055508984600801600082825461335f9190614477565b90915550506003546040516334f32e2560e01b81526001600160a01b038d811660048301528915156024830152909116906334f32e259060440160206040518083038186803b1580156133b157600080fd5b505afa1580156133c5573d6000803e3d6000fd5b505050506040513d601f19601f820116820180604052508101906133e991906143a7565b8460050181905550888460090160008282546134059190614477565b90915550504260068501556007840183905560055460405163c5cbb10360e01b81526001600482015260006024820152604481018490526001600160a01b039091169063c5cbb10390606401600060405180830381600087803b15801561346b57600080fd5b505af115801561347f573d6000803e3d6000fd5b505060055460405163372508c560e11b81526001600160a01b039091169250636e4a118a91506134b9908f908a908f90889060040161456a565b600060405180830381600087803b1580156134d357600080fd5b505af11580156134e7573d6000803e3d6000fd5b50505050600360009054906101000a90046001600160a01b03166001600160a01b03166387a0c4048d8d8a886009015489600401546040518663ffffffff1660e01b81526004016135689594939291906001600160a01b03958616815293909416602084015290151560408301526060820152608081019190915260a00190565b60006040518083038186803b15801561358057600080fd5b505afa158015613594573d6000803e3d6000fd5b50506006546040516365c18e7560e11b81526001600160a01b03909116925063cb831cea91506135d1908f908f908c908e90600190600401614352565b604080518083038186803b1580156135e857600080fd5b505afa1580156135fc573d6000803e3d6000fd5b505050506040513d601f19601f820116820180604052508101906136209190614383565b5050600360009054906101000a90046001600160a01b03166001600160a01b0316635e8f0a578c8e8a8d6040518563ffffffff1660e01b815260040161366994939291906143e2565b600060405180830381600087803b15801561368357600080fd5b505af1158015613697573d6000803e3d6000fd5b505050506136a68b888b613c94565b6136b18b888361374a565b60065460405163cf1d50a560e01b81526001600160a01b038e811660048301528d811660248301528915156044830152606482018b9052608482018d905260a482018c905260c482018590529091169063cf1d50a59060e401600060405180830381600087803b15801561372457600080fd5b505af1158015613738573d6000803e3d6000fd5b50505050505050505050505050505050565b6001600160a01b038316600090815260076020908152604080832085151584529091528120805483929061377f908490614477565b90915550506001600160a01b038316600081815260076020908152604080832086151580855290835292819020548151938452918301919091527f4a3d6f4762d164efb9ac88d36c58b504eb452b3f68b986dad9563c3bd29fca689101613087565b6001600160a01b038316600090815260086020908152604080832085151584529091529020548111156138565760405162461bcd60e51b815260206004820152601f60248201527f5661756c743a207265736572766564416d6f756e7473206578636565646564006044820152606401610781565b6001600160a01b038316600090815260086020908152604080832085151584529091528120805483929061388b908490614460565b90915550506001600160a01b038316600081815260086020908152604080832086151580855290835292819020548151938452918301919091527f0927fc42fff94dd82e5e0360bc8f0738ec6dce3d7b7096f1997f694e7e16b27f9101613087565b60008060006138fe88888787612988565b60008181526009602081905260408083206002549281015460038201549251631a9ef22d60e21b81526001600160a01b038e81166004830152602482019290925260448101939093528a151560648401529495509383928392839290911690636a7bc8b490608401604080518083038186803b15801561397d57600080fd5b505afa158015613991573d6000803e3d6000fd5b505050506040513d601f19601f820116820180604052508101906139b591906145d1565b600987015491955085935091506139cc828d6142fc565b6139d691906143c0565b92505050600080600360009054906101000a90046001600160a01b03166001600160a01b03166393ac4ef78e8e8d8f8a600901548b600501546040518763ffffffff1660e01b8152600401613a3096959493929190614534565b60206040518083038186803b158015613a4857600080fd5b505afa158015613a5c573d6000803e3d6000fd5b505050506040513d601f19601f82011682018060405250810190613a8091906143a7565b90508215613ae5578315613ab05782915082856002016000828254613aa591906146ab565b90915550613ae59050565b82856004016000828254613ac49190614460565b9250508190555082856002016000828254613adf91906146ec565b90915550505b8a85600901541415613b0e576004850154613b009083614477565b600060048701559150613b58565b600085600901548c8760040154613b2591906142fc565b613b2f91906143c0565b9050613b3b8184614477565b925080866004016000828254613b519190614460565b9091555050505b60055460405163c5cbb10360e01b8152851515600482015260248101859052604481018390526001600160a01b039091169063c5cbb10390606401600060405180830381600087803b158015613bad57600080fd5b505af1158015613bc1573d6000803e3d6000fd5b5050505080821015613be75780856004016000828254613be19190614460565b90915550505b600660009054906101000a90046001600160a01b03166001600160a01b0316631852bf328e8e8d8d60016040518663ffffffff1660e01b8152600401613c31959493929190614352565b60206040518083038186803b158015613c4957600080fd5b505afa158015613c5d573d6000803e3d6000fd5b505050506040513d601f19601f82011682018060405250810190613c81919061443c565b50909c909b509950505050505050505050565b6001600160a01b0383166000908152600860209081526040808320851515845290915281208054839290613cc9908490614477565b90915550506001600160a01b038316600081815260086020908152604080832086151580855290835292819020548151938452918301919091527f0f5303a8153a57fcb90ff51e72031bfe02787aa693c43e6a2cce852cc8d22bc39101613087565b6001600160a01b0381168114613d4057600080fd5b50565b8015158114613d4057600080fd5b60008060008060808587031215613d6757600080fd5b8435613d7281613d2b565b93506020850135613d8281613d2b565b92506040850135613d9281613d43565b9396929550929360600135925050565b600080600080600060a08688031215613dba57600080fd5b8535613dc581613d2b565b94506020860135613dd581613d2b565b93506040860135613de581613d2b565b92506060860135613df581613d2b565b91506080860135613e0581613d2b565b809150509295509295909350565b600080600080600060a08688031215613e2b57600080fd5b8535613e3681613d2b565b94506020860135613e4681613d2b565b9350604086013592506060860135613e5d81613d43565b949793965091946080013592915050565b60008060008060008060c08789031215613e8757600080fd5b8635613e9281613d2b565b95506020870135613ea281613d2b565b94506040870135613eb281613d43565b959894975094956060810135955060808101359460a0909101359350915050565b600060208284031215613ee557600080fd5b5035919050565b634e487b7160e01b600052602160045260246000fd5b60048110613f1257613f12613eec565b9052565b6101008101613f25828b613f02565b602082019890985260408101969096526060860194909452608085019290925260a084015260c083015260e090910152919050565b60008060408385031215613f6d57600080fd5b8235613f7881613d2b565b91506020830135613f8881613d43565b809150509250929050565b613f9e828251613f02565b6020810151602083015260408101516040830152606081015160608301526080810151608083015260a081015160a083015260c081015160c083015260e081015160e08301525050565b83516001600160a01b031681526102c08101602085015161401460208401826001600160a01b03169052565b5060408501516040830152606085015160608301526080850151608083015260a085015160a083015260c085015160c083015260e085015160e0830152610100808601518184015250610120808601518184015250614077610140830185613f93565b825115156102408301526020830151610260830152604083015161028083015260608301516102a08301526129df565b634e487b7160e01b600052604160045260246000fd5b600082601f8301126140ce57600080fd5b8135602067ffffffffffffffff808311156140eb576140eb6140a7565b8260051b604051601f19603f83011681018181108482111715614110576141106140a7565b60405293845285810183019383810192508785111561412e57600080fd5b83870191505b8482101561414d57813583529183019190830190614134565b979650505050505050565b600080600080600060a0868803121561417057600080fd5b853561417b81613d2b565b9450602086013561418b81613d2b565b9350604086013561419b81613d43565b925060608601359150608086013567ffffffffffffffff8111156141be57600080fd5b6141ca888289016140bd565b9150509295509295909350565b60008060008060008060c087890312156141f057600080fd5b86356141fb81613d2b565b9550602087013561420b81613d2b565b9450604087013561421b81613d43565b935060608701359250608087013561423281613d43565b8092505060a087013590509295509295509295565b60008060008060008060c0878903121561426057600080fd5b863561426b81613d2b565b9550602087013561427b81613d2b565b9450604087013561428b81613d43565b935060608701356005811061429f57600080fd5b9250608087013567ffffffffffffffff8111156142bb57600080fd5b6142c789828a016140bd565b92505060a08701356142d881613d2b565b809150509295509295509295565b634e487b7160e01b600052601160045260246000fd5b6000816000190483118215151615614316576143166142e6565b500290565b6020808252601f908201527f5265656e7472616e637947756172643a207265656e7472616e742063616c6c00604082015260600190565b6001600160a01b03958616815293909416602084015290151560408301526060820152901515608082015260a00190565b6000806040838503121561439657600080fd5b505080516020909101519092909150565b6000602082840312156143b957600080fd5b5051919050565b6000826143dd57634e487b7160e01b600052601260045260246000fd5b500490565b6001600160a01b03948516815292909316602083015215156040820152606081019190915260800190565b6020808252601590820152744f6e6c79207661756c74206861732061636365737360581b604082015260600190565b60006020828403121561444e57600080fd5b815161445981613d43565b9392505050565b600082821015614472576144726142e6565b500390565b6000821982111561448a5761448a6142e6565b500190565b600081518084526020808501945080840160005b838110156144bf578151875295820195908201906001016144a3565b509495945050505050565b6001600160a01b0386811682528516602082015283151560408201526060810183905260a06080820181905260009061414d9083018461448f565b634e487b7160e01b600052603260045260246000fd5b8281526040602082015260006129df604083018461448f565b6001600160a01b03968716815294909516602085015291151560408401526060830152608082015260a081019190915260c00190565b6001600160a01b0394851681529290931660208301526040820152606081019190915260800190565b83815260208101839052606081016129df6040830184613f02565b6000602082840312156145c057600080fd5b815160ff8116811461445957600080fd5b600080604083850312156145e457600080fd5b82516145ef81613d43565b6020939093015192949293505050565b85151581526001600160a01b038516602082015260006005851061462557614625613eec565b84604083015260a0606083015261463f60a083018561448f565b905082151560808301529695505050505050565b8781526001600160a01b03871660208201528515156040820152606081018590526080810184905261468860a0820184613f02565b60e060c0820152600061469e60e083018461448f565b9998505050505050505050565b600080821280156001600160ff1b03849003851316156146cd576146cd6142e6565b600160ff1b83900384128116156146e6576146e66142e6565b50500190565b60008083128015600160ff1b85018412161561470a5761470a6142e6565b6001600160ff1b0384018313811615614725576147256142e6565b5050039056fea26469706673582212201bac7d211c8c1dc9444549f6bbd2a65ef5067f5339ebfec862dabf91df7f55c764736f6c63430008090033",
  "linkReferences": {},
  "deployedLinkReferences": {}
}