{
  "_format": "hh-sol-artifact-1",
  "contractName": "TriggerOrderManager",
  "sourceName": "contracts/core/TriggerOrderManager.sol",
  "abi": [
    {
      "inputs": [
        {
          "internalType": "address",
          "name": "_positionVault",
          "type": "address"
        },
        {
          "internalType": "address",
          "name": "_priceManager",
          "type": "address"
        },
        {
          "internalType": "address",
          "name": "_settingsManager",
          "type": "address"
        }
      ],
      "stateMutability": "nonpayable",
      "type": "constructor"
    },
    {
      "anonymous": false,
      "inputs": [
        {
          "indexed": false,
          "internalType": "bytes32",
          "name": "key",
          "type": "bytes32"
        },
        {
          "indexed": false,
          "internalType": "uint256[]",
          "name": "tpPrices",
          "type": "uint256[]"
        },
        {
          "indexed": false,
          "internalType": "uint256[]",
          "name": "slPrices",
          "type": "uint256[]"
        },
        {
          "indexed": false,
          "internalType": "uint256[]",
          "name": "tpAmountPercents",
          "type": "uint256[]"
        },
        {
          "indexed": false,
          "internalType": "uint256[]",
          "name": "slAmountPercents",
          "type": "uint256[]"
        },
        {
          "indexed": false,
          "internalType": "uint256[]",
          "name": "tpTriggeredAmounts",
          "type": "uint256[]"
        },
        {
          "indexed": false,
          "internalType": "uint256[]",
          "name": "slTriggeredAmounts",
          "type": "uint256[]"
        },
        {
          "indexed": false,
          "internalType": "enum TriggerStatus",
          "name": "status",
          "type": "uint8"
        }
      ],
      "name": "ExecuteTriggerOrders",
      "type": "event"
    },
    {
      "anonymous": false,
      "inputs": [
        {
          "indexed": false,
          "internalType": "bytes32",
          "name": "key",
          "type": "bytes32"
        },
        {
          "indexed": false,
          "internalType": "uint256[]",
          "name": "tpPrices",
          "type": "uint256[]"
        },
        {
          "indexed": false,
          "internalType": "uint256[]",
          "name": "slPrices",
          "type": "uint256[]"
        },
        {
          "indexed": false,
          "internalType": "uint256[]",
          "name": "tpAmountPercents",
          "type": "uint256[]"
        },
        {
          "indexed": false,
          "internalType": "uint256[]",
          "name": "slAmountPercents",
          "type": "uint256[]"
        },
        {
          "indexed": false,
          "internalType": "uint256[]",
          "name": "tpTriggeredAmounts",
          "type": "uint256[]"
        },
        {
          "indexed": false,
          "internalType": "uint256[]",
          "name": "slTriggeredAmounts",
          "type": "uint256[]"
        },
        {
          "indexed": false,
          "internalType": "enum TriggerStatus",
          "name": "status",
          "type": "uint8"
        }
      ],
      "name": "UpdateTriggerOrders",
      "type": "event"
    },
    {
      "anonymous": false,
      "inputs": [
        {
          "indexed": false,
          "internalType": "bytes32",
          "name": "key",
          "type": "bytes32"
        },
        {
          "indexed": false,
          "internalType": "enum TriggerStatus",
          "name": "status",
          "type": "uint8"
        }
      ],
      "name": "UpdateTriggerStatus",
      "type": "event"
    },
    {
      "inputs": [],
      "name": "BASIS_POINTS_DIVISOR",
      "outputs": [
        {
          "internalType": "uint256",
          "name": "",
          "type": "uint256"
        }
      ],
      "stateMutability": "view",
      "type": "function"
    },
    {
      "inputs": [],
      "name": "DEFAULT_FUNDING_RATE_FACTOR",
      "outputs": [
        {
          "internalType": "uint256",
          "name": "",
          "type": "uint256"
        }
      ],
      "stateMutability": "view",
      "type": "function"
    },
    {
      "inputs": [],
      "name": "DEFAULT_MAX_OPEN_INTEREST",
      "outputs": [
        {
          "internalType": "uint256",
          "name": "",
          "type": "uint256"
        }
      ],
      "stateMutability": "view",
      "type": "function"
    },
    {
      "inputs": [],
      "name": "DEFAULT_VLP_PRICE",
      "outputs": [
        {
          "internalType": "uint256",
          "name": "",
          "type": "uint256"
        }
      ],
      "stateMutability": "view",
      "type": "function"
    },
    {
      "inputs": [],
      "name": "FUNDING_RATE_PRECISION",
      "outputs": [
        {
          "internalType": "uint256",
          "name": "",
          "type": "uint256"
        }
      ],
      "stateMutability": "view",
      "type": "function"
    },
    {
      "inputs": [],
      "name": "LIQUIDATE_FEE_EXCEED",
      "outputs": [
        {
          "internalType": "uint256",
          "name": "",
          "type": "uint256"
        }
      ],
      "stateMutability": "view",
      "type": "function"
    },
    {
      "inputs": [],
      "name": "LIQUIDATE_NONE_EXCEED",
      "outputs": [
        {
          "internalType": "uint256",
          "name": "",
          "type": "uint256"
        }
      ],
      "stateMutability": "view",
      "type": "function"
    },
    {
      "inputs": [],
      "name": "LIQUIDATE_THRESHOLD_EXCEED",
      "outputs": [
        {
          "internalType": "uint256",
          "name": "",
          "type": "uint256"
        }
      ],
      "stateMutability": "view",
      "type": "function"
    },
    {
      "inputs": [],
      "name": "MAX_COOLDOWN_DURATION",
      "outputs": [
        {
          "internalType": "uint256",
          "name": "",
          "type": "uint256"
        }
      ],
      "stateMutability": "view",
      "type": "function"
    },
    {
      "inputs": [],
      "name": "MAX_DELTA_TIME",
      "outputs": [
        {
          "internalType": "uint256",
          "name": "",
          "type": "uint256"
        }
      ],
      "stateMutability": "view",
      "type": "function"
    },
    {
      "inputs": [],
      "name": "MAX_DEPOSIT_FEE",
      "outputs": [
        {
          "internalType": "uint256",
          "name": "",
          "type": "uint256"
        }
      ],
      "stateMutability": "view",
      "type": "function"
    },
    {
      "inputs": [],
      "name": "MAX_FEE_BASIS_POINTS",
      "outputs": [
        {
          "internalType": "uint256",
          "name": "",
          "type": "uint256"
        }
      ],
      "stateMutability": "view",
      "type": "function"
    },
    {
      "inputs": [],
      "name": "MAX_FEE_REWARD_BASIS_POINTS",
      "outputs": [
        {
          "internalType": "uint256",
          "name": "",
          "type": "uint256"
        }
      ],
      "stateMutability": "view",
      "type": "function"
    },
    {
      "inputs": [],
      "name": "MAX_FUNDING_RATE_FACTOR",
      "outputs": [
        {
          "internalType": "uint256",
          "name": "",
          "type": "uint256"
        }
      ],
      "stateMutability": "view",
      "type": "function"
    },
    {
      "inputs": [],
      "name": "MAX_FUNDING_RATE_INTERVAL",
      "outputs": [
        {
          "internalType": "uint256",
          "name": "",
          "type": "uint256"
        }
      ],
      "stateMutability": "view",
      "type": "function"
    },
    {
      "inputs": [],
      "name": "MAX_LIQUIDATION_FEE_USD",
      "outputs": [
        {
          "internalType": "uint256",
          "name": "",
          "type": "uint256"
        }
      ],
      "stateMutability": "view",
      "type": "function"
    },
    {
      "inputs": [],
      "name": "MAX_STAKING_FEE",
      "outputs": [
        {
          "internalType": "uint256",
          "name": "",
          "type": "uint256"
        }
      ],
      "stateMutability": "view",
      "type": "function"
    },
    {
      "inputs": [],
      "name": "MAX_TOKENFARM_COOLDOWN_DURATION",
      "outputs": [
        {
          "internalType": "uint256",
          "name": "",
          "type": "uint256"
        }
      ],
      "stateMutability": "view",
      "type": "function"
    },
    {
      "inputs": [],
      "name": "MAX_TRIGGER_GAS_FEE",
      "outputs": [
        {
          "internalType": "uint256",
          "name": "",
          "type": "uint256"
        }
      ],
      "stateMutability": "view",
      "type": "function"
    },
    {
      "inputs": [],
      "name": "MAX_VESTING_DURATION",
      "outputs": [
        {
          "internalType": "uint256",
          "name": "",
          "type": "uint256"
        }
      ],
      "stateMutability": "view",
      "type": "function"
    },
    {
      "inputs": [],
      "name": "MIN_FEE_REWARD_BASIS_POINTS",
      "outputs": [
        {
          "internalType": "uint256",
          "name": "",
          "type": "uint256"
        }
      ],
      "stateMutability": "view",
      "type": "function"
    },
    {
      "inputs": [],
      "name": "MIN_FUNDING_RATE_INTERVAL",
      "outputs": [
        {
          "internalType": "uint256",
          "name": "",
          "type": "uint256"
        }
      ],
      "stateMutability": "view",
      "type": "function"
    },
    {
      "inputs": [],
      "name": "MIN_LEVERAGE",
      "outputs": [
        {
          "internalType": "uint256",
          "name": "",
          "type": "uint256"
        }
      ],
      "stateMutability": "view",
      "type": "function"
    },
    {
      "inputs": [],
      "name": "ORDER_FILLED",
      "outputs": [
        {
          "internalType": "uint8",
          "name": "",
          "type": "uint8"
        }
      ],
      "stateMutability": "view",
      "type": "function"
    },
    {
      "inputs": [],
      "name": "ORDER_NOT_FILLED",
      "outputs": [
        {
          "internalType": "uint8",
          "name": "",
          "type": "uint8"
        }
      ],
      "stateMutability": "view",
      "type": "function"
    },
    {
      "inputs": [],
      "name": "POSITION_LIMIT",
      "outputs": [
        {
          "internalType": "uint256",
          "name": "",
          "type": "uint256"
        }
      ],
      "stateMutability": "view",
      "type": "function"
    },
    {
      "inputs": [],
      "name": "POSITION_MARKET",
      "outputs": [
        {
          "internalType": "uint256",
          "name": "",
          "type": "uint256"
        }
      ],
      "stateMutability": "view",
      "type": "function"
    },
    {
      "inputs": [],
      "name": "POSITION_STOP_LIMIT",
      "outputs": [
        {
          "internalType": "uint256",
          "name": "",
          "type": "uint256"
        }
      ],
      "stateMutability": "view",
      "type": "function"
    },
    {
      "inputs": [],
      "name": "POSITION_STOP_MARKET",
      "outputs": [
        {
          "internalType": "uint256",
          "name": "",
          "type": "uint256"
        }
      ],
      "stateMutability": "view",
      "type": "function"
    },
    {
      "inputs": [],
      "name": "POSITION_TRAILING_STOP",
      "outputs": [
        {
          "internalType": "uint256",
          "name": "",
          "type": "uint256"
        }
      ],
      "stateMutability": "view",
      "type": "function"
    },
    {
      "inputs": [],
      "name": "PRICE_PRECISION",
      "outputs": [
        {
          "internalType": "uint256",
          "name": "",
          "type": "uint256"
        }
      ],
      "stateMutability": "view",
      "type": "function"
    },
    {
      "inputs": [],
      "name": "STAKING_PID_FOR_CHARGE_FEE",
      "outputs": [
        {
          "internalType": "uint8",
          "name": "",
          "type": "uint8"
        }
      ],
      "stateMutability": "view",
      "type": "function"
    },
    {
      "inputs": [],
      "name": "TRAILING_STOP_TYPE_AMOUNT",
      "outputs": [
        {
          "internalType": "uint256",
          "name": "",
          "type": "uint256"
        }
      ],
      "stateMutability": "view",
      "type": "function"
    },
    {
      "inputs": [],
      "name": "TRAILING_STOP_TYPE_PERCENT",
      "outputs": [
        {
          "internalType": "uint256",
          "name": "",
          "type": "uint256"
        }
      ],
      "stateMutability": "view",
      "type": "function"
    },
    {
      "inputs": [],
      "name": "VLP_DECIMALS",
      "outputs": [
        {
          "internalType": "uint256",
          "name": "",
          "type": "uint256"
        }
      ],
      "stateMutability": "view",
      "type": "function"
    },
    {
      "inputs": [],
      "name": "ZERO_ADDRESS",
      "outputs": [
        {
          "internalType": "address",
          "name": "",
          "type": "address"
        }
      ],
      "stateMutability": "view",
      "type": "function"
    },
    {
      "inputs": [
        {
          "internalType": "address",
          "name": "_token",
          "type": "address"
        },
        {
          "internalType": "bool",
          "name": "_isLong",
          "type": "bool"
        },
        {
          "internalType": "uint256",
          "name": "_posId",
          "type": "uint256"
        }
      ],
      "name": "cancelTriggerOrders",
      "outputs": [],
      "stateMutability": "nonpayable",
      "type": "function"
    },
    {
      "inputs": [
        {
          "internalType": "address",
          "name": "_account",
          "type": "address"
        },
        {
          "internalType": "address",
          "name": "_token",
          "type": "address"
        },
        {
          "internalType": "bool",
          "name": "_isLong",
          "type": "bool"
        },
        {
          "internalType": "uint256",
          "name": "_posId",
          "type": "uint256"
        }
      ],
      "name": "executeTriggerOrders",
      "outputs": [
        {
          "internalType": "bool",
          "name": "",
          "type": "bool"
        },
        {
          "internalType": "uint256",
          "name": "",
          "type": "uint256"
        }
      ],
      "stateMutability": "nonpayable",
      "type": "function"
    },
    {
      "inputs": [
        {
          "internalType": "address",
          "name": "_account",
          "type": "address"
        },
        {
          "internalType": "address",
          "name": "_indexToken",
          "type": "address"
        },
        {
          "internalType": "bool",
          "name": "_isLong",
          "type": "bool"
        },
        {
          "internalType": "uint256",
          "name": "_posId",
          "type": "uint256"
        }
      ],
      "name": "getTriggerOrderInfo",
      "outputs": [
        {
          "components": [
            {
              "internalType": "bytes32",
              "name": "key",
              "type": "bytes32"
            },
            {
              "internalType": "uint256[]",
              "name": "slPrices",
              "type": "uint256[]"
            },
            {
              "internalType": "uint256[]",
              "name": "slAmountPercents",
              "type": "uint256[]"
            },
            {
              "internalType": "uint256[]",
              "name": "slTriggeredAmounts",
              "type": "uint256[]"
            },
            {
              "internalType": "uint256[]",
              "name": "tpPrices",
              "type": "uint256[]"
            },
            {
              "internalType": "uint256[]",
              "name": "tpAmountPercents",
              "type": "uint256[]"
            },
            {
              "internalType": "uint256[]",
              "name": "tpTriggeredAmounts",
              "type": "uint256[]"
            },
            {
              "internalType": "enum TriggerStatus",
              "name": "status",
              "type": "uint8"
            }
          ],
          "internalType": "struct TriggerOrder",
          "name": "",
          "type": "tuple"
        }
      ],
      "stateMutability": "view",
      "type": "function"
    },
    {
      "inputs": [],
      "name": "positionVault",
      "outputs": [
        {
          "internalType": "contract IPositionVault",
          "name": "",
          "type": "address"
        }
      ],
      "stateMutability": "view",
      "type": "function"
    },
    {
      "inputs": [],
      "name": "priceManager",
      "outputs": [
        {
          "internalType": "contract IPriceManager",
          "name": "",
          "type": "address"
        }
      ],
      "stateMutability": "view",
      "type": "function"
    },
    {
      "inputs": [],
      "name": "settingsManager",
      "outputs": [
        {
          "internalType": "contract ISettingsManager",
          "name": "",
          "type": "address"
        }
      ],
      "stateMutability": "view",
      "type": "function"
    },
    {
      "inputs": [
        {
          "internalType": "bytes32",
          "name": "",
          "type": "bytes32"
        }
      ],
      "name": "triggerOrders",
      "outputs": [
        {
          "internalType": "bytes32",
          "name": "key",
          "type": "bytes32"
        },
        {
          "internalType": "enum TriggerStatus",
          "name": "status",
          "type": "uint8"
        }
      ],
      "stateMutability": "view",
      "type": "function"
    },
    {
      "inputs": [
        {
          "internalType": "address",
          "name": "_indexToken",
          "type": "address"
        },
        {
          "internalType": "bool",
          "name": "_isLong",
          "type": "bool"
        },
        {
          "internalType": "uint256",
          "name": "_posId",
          "type": "uint256"
        },
        {
          "internalType": "uint256[]",
          "name": "_tpPrices",
          "type": "uint256[]"
        },
        {
          "internalType": "uint256[]",
          "name": "_slPrices",
          "type": "uint256[]"
        },
        {
          "internalType": "uint256[]",
          "name": "_tpAmountPercents",
          "type": "uint256[]"
        },
        {
          "internalType": "uint256[]",
          "name": "_slAmountPercents",
          "type": "uint256[]"
        },
        {
          "internalType": "uint256[]",
          "name": "_tpTriggeredAmounts",
          "type": "uint256[]"
        },
        {
          "internalType": "uint256[]",
          "name": "_slTriggeredAmounts",
          "type": "uint256[]"
        }
      ],
      "name": "updateTriggerOrders",
      "outputs": [],
      "stateMutability": "payable",
      "type": "function"
    },
    {
      "inputs": [
        {
          "internalType": "address",
          "name": "_account",
          "type": "address"
        },
        {
          "internalType": "address",
          "name": "_token",
          "type": "address"
        },
        {
          "internalType": "bool",
          "name": "_isLong",
          "type": "bool"
        },
        {
          "internalType": "uint256",
          "name": "_posId",
          "type": "uint256"
        }
      ],
      "name": "validateTPSLTriggers",
      "outputs": [
        {
          "internalType": "bool",
          "name": "",
          "type": "bool"
        }
      ],
      "stateMutability": "view",
      "type": "function"
    }
  ],
  "bytecode": "0x60c06040523480156200001157600080fd5b5060405162002393380380620023938339810160408190526200003491620001d3565b60016000819055506200005283620001a760201b620016191760201c565b620000a45760405162461bcd60e51b815260206004820181905260248201527f706f736974696f6e5661756c74206164647265737320697320696e76616c696460448201526064015b60405180910390fd5b620000ba82620001a760201b620016191760201c565b620001085760405162461bcd60e51b815260206004820152601f60248201527f70726963654d616e61676572206164647265737320697320696e76616c69640060448201526064016200009b565b6200011e81620001a760201b620016191760201c565b620001775760405162461bcd60e51b815260206004820152602260248201527f73657474696e67734d616e61676572206164647265737320697320696e76616c6044820152611a5960f21b60648201526084016200009b565b6001600160a01b03928316608052600180546001600160a01b031916928416929092179091551660a0526200021d565b6001600160a01b03163b151590565b80516001600160a01b0381168114620001ce57600080fd5b919050565b600080600060608486031215620001e957600080fd5b620001f484620001b6565b92506200020460208501620001b6565b91506200021460408501620001b6565b90509250925092565b60805160a05161212d620002666000396000818161054d0152818161080e015261096e0152600081816104d70152818161072601528181610bdc0152610c98015261212d6000f3fe6080604052600436106102725760003560e01c80637cd0814b1161014f578063c6d87dd5116100c1578063dac054971161007a578063dac05497146105c0578063e7554f03146103ef578063eeffe469146105f5578063f4988279146102cd578063fce28c101461060b578063ffc5be251461062157600080fd5b8063c6d87dd5146102e2578063c7e1ffe314610584578063c8cbdd34146102b6578063d1636ae7146105a4578063d1e6a272146105c0578063d2231ea9146105d557600080fd5b8063a6b4f2ce11610113578063a6b4f2ce146104f9578063abd78139146103ef578063ad8eabe71461050e578063b194d13d146102f8578063bb7dd5e61461053b578063c201cf191461056f57600080fd5b80637cd0814b146104775780638a39735a146102e257806395082d251461048f57806396279aba146104b057806398654aff146104c557600080fd5b80634befe2ca116101e85780635dceb8d3116101ac5780635dceb8d31461040457806365d7aae1146102b657806366f17c571461041b5780636be23255146102cd5780636be6026b1461044b5780636e8ffe621461046257600080fd5b80634befe2ca1461035e578063538ba4f914610374578063559e2f1f146103a157806358f4f5f8146103b85780635962e8af146103ef57600080fd5b80632a62b52d1161023a5780632a62b52d146102e25780632ab12872146102f857806333d44cb41461031f57806333dfc1931461033457806334c1557d146102e25780633d8b95951461034957600080fd5b806304799c991461027757806307c58752146102a1578063126082cf146102b65780631a465e86146102cd5780631e9049cf14610277575b600080fd5b34801561028357600080fd5b5061028e6202a30081565b6040519081526020015b60405180910390f35b3480156102ad57600080fd5b5061028e610666565b3480156102c257600080fd5b5061028e620186a081565b3480156102d957600080fd5b5061028e600181565b3480156102ee57600080fd5b5061028e61271081565b34801561030457600080fd5b5061030d600181565b60405160ff9091168152602001610298565b34801561032b57600080fd5b5061028e601281565b6103476103423660046119db565b610681565b005b34801561035557600080fd5b5061030d600081565b34801561036a57600080fd5b5061028e61138881565b34801561038057600080fd5b50610389600081565b6040516001600160a01b039091168152602001610298565b3480156103ad57600080fd5b5061028e6224ea0081565b3480156103c457600080fd5b506103d86103d3366004611afd565b610bce565b604080519215158352602083019190915201610298565b3480156103fb57600080fd5b5061028e600081565b34801561041057600080fd5b5061028e6201518081565b34801561042757600080fd5b5061043b610436366004611afd565b611063565b6040519015158152602001610298565b34801561045757600080fd5b5061028e620f424081565b34801561046e57600080fd5b5061028e606481565b34801561048357600080fd5b5061028e63039ada0081565b34801561049b57600080fd5b5061028e6c0c9f2c9cd04674edea4000000081565b3480156104bc57600080fd5b5061028e600381565b3480156104d157600080fd5b506103897f000000000000000000000000000000000000000000000000000000000000000081565b34801561050557600080fd5b5061028e600481565b34801561051a57600080fd5b5061052e610529366004611afd565b611299565b6040516102989190611bc1565b34801561054757600080fd5b506103897f000000000000000000000000000000000000000000000000000000000000000081565b34801561057b57600080fd5b5061028e611526565b34801561059057600080fd5b50600154610389906001600160a01b031681565b3480156105b057600080fd5b5061028e67016345785d8a000081565b3480156105cc57600080fd5b5061028e600281565b3480156105e157600080fd5b506103476105f0366004611c9b565b611542565b34801561060157600080fd5b5061028e61c35081565b34801561061757600080fd5b5061028e610e1081565b34801561062d57600080fd5b5061065861063c366004611cdc565b6002602052600090815260409020805460079091015460ff1682565b604051610298929190611cf5565b61067e6c0c9f2c9cd04674edea400000006064611d26565b81565b600260005414156106d95760405162461bcd60e51b815260206004820152601f60248201527f5265656e7472616e637947756172643a207265656e7472616e742063616c6c0060448201526064015b60405180910390fd5b600260009081556106ec338b8b8b611628565b60405163289c9a0f60e21b81523360048201526001600160a01b038c811660248301528b15156044830152606482018b90529192506000917f0000000000000000000000000000000000000000000000000000000000000000169063a272683c906084016102c06040518083038186803b15801561076957600080fd5b505afa15801561077d573d6000803e3d6000fd5b505050506040513d601f19601f820116820180604052508101906107a19190611e3d565b5050905060008161012001511161080c5760405162461bcd60e51b815260206004820152602960248201527f706f736974696f6e2073697a652073686f756c642062652067726561746572206044820152687468616e207a65726f60b81b60648201526084016106d0565b7f00000000000000000000000000000000000000000000000000000000000000006001600160a01b031663791b98bc6040518163ffffffff1660e01b815260040160206040518083038186803b15801561086557600080fd5b505afa158015610879573d6000803e3d6000fd5b505050506040513d601f19601f8201168201806040525081019061089d9190611f08565b6001600160a01b03166108fc349081150290604051600060405180830381858888f193505050501580156108d5573d6000803e3d6000fd5b5060006108e68c8c8b8b8989611686565b9050806109355760405162461bcd60e51b815260206004820152601f60248201527f747269676765724f7264657220646174612061726520696e636f72726563740060448201526064016106d0565b875189516109439190611f25565b600084815260026020526040902060018101546004909101546109669190611f25565b1015610a43577f00000000000000000000000000000000000000000000000000000000000000006001600160a01b03166364c8bb7e6040518163ffffffff1660e01b815260040160206040518083038186803b1580156109c557600080fd5b505afa1580156109d9573d6000803e3d6000fd5b505050506040513d601f19601f820116820180604052508101906109fd9190611f3d565b3414610a435760405162461bcd60e51b8152602060048201526015602482015274696e76616c6964207472696767657247617346656560581b60448201526064016106d0565b6040518061010001604052808481526020018981526020018781526020018581526020018a815260200188815260200186815260200160006002811115610a8c57610a8c611b89565b90526000848152600260209081526040909120825181558282015180519192610abd926001850192909101906117e3565b5060408201518051610ad99160028401916020909101906117e3565b5060608201518051610af59160038401916020909101906117e3565b5060808201518051610b119160048401916020909101906117e3565b5060a08201518051610b2d9160058401916020909101906117e3565b5060c08201518051610b499160068401916020909101906117e3565b5060e082015160078201805460ff19166001836002811115610b6d57610b6d611b89565b02179055509050507f7629a33c8b685d5abcba0496f918d4a82161a6b129a695841add9c6fad15cb8b838a8a8a8a8a8a6000604051610bb3989796959493929190611f56565b60405180910390a15050600160005550505050505050505050565b600080336001600160a01b037f00000000000000000000000000000000000000000000000000000000000000001614610c415760405162461bcd60e51b81526020600482015260156024820152744f6e6c79207661756c74206861732061636365737360581b60448201526064016106d0565b6000610c4f87878787611628565b600081815260026020526040808220905163289c9a0f60e21b81526001600160a01b038b811660048301528a8116602483015289151560448301526064820189905293945090927f0000000000000000000000000000000000000000000000000000000000000000169063a272683c906084016102c06040518083038186803b158015610cdb57600080fd5b505afa158015610cef573d6000803e3d6000fd5b505050506040513d601f19601f82011682018060405250810190610d139190611e3d565b5090915060009050600783015460ff166002811115610d3457610d34611b89565b14610d795760405162461bcd60e51b81526020600482015260156024820152742a3934b3b3b2b927b93232b9103737ba1027b832b760591b60448201526064016106d0565b6001546040516331a4bf1d60e21b81526001600160a01b038a81166004830152600092169063c692fc749060240160206040518083038186803b158015610dbf57600080fd5b505afa158015610dd3573d6000803e3d6000fd5b505050506040513d601f19601f82011682018060405250810190610df79190611f3d565b905060015b600081610e0c5784600101610e11565b846004015b9050600082610e235785600301610e28565b856006015b9050600083610e3a5786600201610e3f565b866005015b90506000805b84548114801590610e585750620186a082105b15610f7b57600086610e6b578e15610e6d565b8e5b9050848281548110610e8157610e81611ff1565b90600052602060002001546000148015610ee1575080610ec057858281548110610ead57610ead611ff1565b9060005260206000200154881115610ee1565b87868381548110610ed357610ed3611ff1565b906000526020600020015411155b15610f6a57838281548110610ef857610ef8611ff1565b906000526020600020015483610f0e9190611f25565b9250620186a0848381548110610f2657610f26611ff1565b90600052602060002001548a6101200151610f419190611d26565b610f4b9190612007565b858381548110610f5d57610f5d611ff1565b6000918252602090912001555b50610f7481612029565b9050610e45565b508015611032577f5df0d2b41678009c620a5f10da56ac13f7c4f7190f564f9d2fdb69c8ea76dd1d89896004018a6001018b6005018c6002018d6006018e6003018f60070160009054906101000a900460ff16604051610fe2989796959493929190612079565b60405180910390a1620186a0811061101e5750505050600793909301805460ff191660019081179091559550620186a0945061105a9350505050565b60019a50985061105a975050505050505050565b84611040575050505061104d565b5050505060009050610dfc565b5060008095509550505050505b94509492505050565b60008061107286868686611628565b6000818152600260205260408120919250600782015460ff16600281111561109c5761109c611b89565b146110ac57600092505050611291565b6001546040516331a4bf1d60e21b81526001600160a01b038881166004830152600092169063c692fc749060240160206040518083038186803b1580156110f257600080fd5b505afa158015611106573d6000803e3d6000fd5b505050506040513d601f19601f8201168201806040525081019061112a9190611f3d565b905060015b60008161113f5783600101611144565b836004015b9050600082611156578460030161115b565b846006015b905060008361116d5785600201611172565b856005015b90506000805b8454811480159061118b5750620186a082105b156112555760008661119e578c156111a0565b8c5b90508482815481106111b4576111b4611ff1565b906000526020600020015460001480156112145750806111f3578582815481106111e0576111e0611ff1565b9060005260206000200154881115611214565b8786838154811061120657611206611ff1565b906000526020600020015411155b156112445783828154811061122b5761122b611ff1565b9060005260206000200154836112419190611f25565b92505b5061124e81612029565b9050611178565b50801561126d57600198505050505050505050611291565b8461127b5750505050611288565b505050506000905061112f565b50600093505050505b949350505050565b6112a161182e565b60006112af86868686611628565b90506002600082815260200190815260200160002060405180610100016040529081600082015481526020016001820180548060200260200160405190810160405280929190818152602001828054801561132957602002820191906000526020600020905b815481526020019060010190808311611315575b505050505081526020016002820180548060200260200160405190810160405280929190818152602001828054801561138157602002820191906000526020600020905b81548152602001906001019080831161136d575b50505050508152602001600382018054806020026020016040519081016040528092919081815260200182805480156113d957602002820191906000526020600020905b8154815260200190600101908083116113c5575b505050505081526020016004820180548060200260200160405190810160405280929190818152602001828054801561143157602002820191906000526020600020905b81548152602001906001019080831161141d575b505050505081526020016005820180548060200260200160405190810160405280929190818152602001828054801561148957602002820191906000526020600020905b815481526020019060010190808311611475575b50505050508152602001600682018054806020026020016040519081016040528092919081815260200182805480156114e157602002820191906000526020600020905b8154815260200190600101908083116114cd575b5050509183525050600782015460209091019060ff16600281111561150857611508611b89565b600281111561151957611519611b89565b9052509695505050505050565b61067e6c0c9f2c9cd04674edea400000006402540be400611d26565b600061155033858585611628565b6000818152600260205260408120919250600782015460ff16600281111561157a5761157a611b89565b146115c75760405162461bcd60e51b815260206004820152601a60248201527f547269676765724f72646572207761732063616e63656c6c656400000000000060448201526064016106d0565b60078101805460ff191660029081179091556040517fa7fe3f3031ed536457c40c519043ead6f9cf6ec914ad323d629b18c09736d7a29161160a91859190611cf5565b60405180910390a15050505050565b6001600160a01b03163b151590565b6040516bffffffffffffffffffffffff19606086811b8216602084015285901b16603482015282151560f81b604882015260498101829052600090606901604051602081830303815290604052805190602001209050949350505050565b6001546040516331a4bf1d60e21b81526001600160a01b038881166004830152600092839291169063c692fc749060240160206040518083038186803b1580156116cf57600080fd5b505afa1580156116e3573d6000803e3d6000fd5b505050506040513d601f19601f820116820180604052508101906117079190611f3d565b905060015b600081611719578661171b565b875b905060008261172a578561172c565b865b905060008361173c578a1561173e565b8a5b905060005b83518110156117b85782818151811061175e5761175e611ff1565b60200260200101516000148015611794575081151584828151811061178557611785611ff1565b60200260200101518710151514155b156117a857600096505050505050506117d9565b6117b181612029565b9050611743565b50836117c6575050506117d2565b5050506000905061170c565b5060019150505b9695505050505050565b82805482825590600052602060002090810192821561181e579160200282015b8281111561181e578251825591602001919060010190611803565b5061182a929150611886565b5090565b604051806101000160405280600080191681526020016060815260200160608152602001606081526020016060815260200160608152602001606081526020016000600281111561188157611881611b89565b905290565b5b8082111561182a5760008155600101611887565b6001600160a01b03811681146118b057600080fd5b50565b80356118be8161189b565b919050565b80151581146118b057600080fd5b80356118be816118c3565b634e487b7160e01b600052604160045260246000fd5b604051610100810167ffffffffffffffff81118282101715611916576119166118dc565b60405290565b604051610140810167ffffffffffffffff81118282101715611916576119166118dc565b600082601f83011261195157600080fd5b8135602067ffffffffffffffff8083111561196e5761196e6118dc565b8260051b604051601f19603f83011681018181108482111715611993576119936118dc565b6040529384528581018301938381019250878511156119b157600080fd5b83870191505b848210156119d0578135835291830191908301906119b7565b979650505050505050565b60008060008060008060008060006101208a8c0312156119fa57600080fd5b611a038a6118b3565b9850611a1160208b016118d1565b975060408a0135965060608a013567ffffffffffffffff80821115611a3557600080fd5b611a418d838e01611940565b975060808c0135915080821115611a5757600080fd5b611a638d838e01611940565b965060a08c0135915080821115611a7957600080fd5b611a858d838e01611940565b955060c08c0135915080821115611a9b57600080fd5b611aa78d838e01611940565b945060e08c0135915080821115611abd57600080fd5b611ac98d838e01611940565b93506101008c0135915080821115611ae057600080fd5b50611aed8c828d01611940565b9150509295985092959850929598565b60008060008060808587031215611b1357600080fd5b8435611b1e8161189b565b93506020850135611b2e8161189b565b92506040850135611b3e816118c3565b9396929550929360600135925050565b600081518084526020808501945080840160005b83811015611b7e57815187529582019590820190600101611b62565b509495945050505050565b634e487b7160e01b600052602160045260246000fd5b60038110611bbd57634e487b7160e01b600052602160045260246000fd5b9052565b602081528151602082015260006020830151610100806040850152611bea610120850183611b4e565b91506040850151601f1980868503016060870152611c088483611b4e565b93506060870151915080868503016080870152611c258483611b4e565b935060808701519150808685030160a0870152611c428483611b4e565b935060a08701519150808685030160c0870152611c5f8483611b4e565b935060c08701519150808685030160e087015250611c7d8382611b4e565b92505060e0850151611c9182860182611b9f565b5090949350505050565b600080600060608486031215611cb057600080fd5b8335611cbb8161189b565b92506020840135611ccb816118c3565b929592945050506040919091013590565b600060208284031215611cee57600080fd5b5035919050565b82815260408101611d096020830184611b9f565b9392505050565b634e487b7160e01b600052601160045260246000fd5b6000816000190483118215151615611d4057611d40611d10565b500290565b80516118be8161189b565b60006101008284031215611d6357600080fd5b611d6b6118f2565b9050815160048110611d7c57600080fd5b808252506020820151602082015260408201516040820152606082015160608201526080820151608082015260a082015160a082015260c082015160c082015260e082015160e082015292915050565b600060808284031215611dde57600080fd5b6040516080810181811067ffffffffffffffff82111715611e0157611e016118dc565b80604052508091508251611e14816118c3565b808252506020830151602082015260408301516040820152606083015160608201525092915050565b60008060008385036102c0811215611e5457600080fd5b61014080821215611e6457600080fd5b611e6c61191c565b9150611e7786611d45565b8252611e8560208701611d45565b602083015260408601516040830152606086015160608301526080860151608083015260a086015160a083015260c086015160c083015260e086015160e0830152610100808701518184015250610120808701518184015250819450611eed87828801611d50565b93505050611eff856102408601611dcc565b90509250925092565b600060208284031215611f1a57600080fd5b8151611d098161189b565b60008219821115611f3857611f38611d10565b500190565b600060208284031215611f4f57600080fd5b5051919050565b60006101008a8352806020840152611f708184018b611b4e565b90508281036040840152611f84818a611b4e565b90508281036060840152611f988189611b4e565b90508281036080840152611fac8188611b4e565b905082810360a0840152611fc08187611b4e565b905082810360c0840152611fd48186611b4e565b915050611fe460e0830184611b9f565b9998505050505050505050565b634e487b7160e01b600052603260045260246000fd5b60008261202457634e487b7160e01b600052601260045260246000fd5b500490565b600060001982141561203d5761203d611d10565b5060010190565b6000815480845260208085019450836000528060002060005b83811015611b7e5781548752958201956001918201910161205d565b60006101008a83528060208401526120938184018b612044565b905082810360408401526120a7818a612044565b905082810360608401526120bb8189612044565b905082810360808401526120cf8188612044565b905082810360a08401526120e38187612044565b905082810360c0840152611fd4818661204456fea264697066735822122046e32751959fdc6323c575f8b0dc680805bae647a28c04325daa52bbc0ef485664736f6c63430008090033",
  "linkReferences": {},
  "deployedLinkReferences": {}
}