{
  "_format": "hh-sol-artifact-1",
  "contractName": "VaultUtils",
  "sourceName": "contracts/core/VaultUtils.sol",
  "abi": [
    {
      "inputs": [
        {
          "internalType": "address",
          "name": "_positionVault",
          "type": "address"
        },
        {
          "internalType": "address",
          "name": "_priceManager",
          "type": "address"
        },
        {
          "internalType": "address",
          "name": "_settingsManager",
          "type": "address"
        }
      ],
      "stateMutability": "nonpayable",
      "type": "constructor"
    },
    {
      "anonymous": false,
      "inputs": [
        {
          "indexed": false,
          "internalType": "bytes32",
          "name": "key",
          "type": "bytes32"
        },
        {
          "indexed": false,
          "internalType": "int256",
          "name": "realisedPnl",
          "type": "int256"
        },
        {
          "indexed": false,
          "internalType": "uint256",
          "name": "markPrice",
          "type": "uint256"
        },
        {
          "indexed": false,
          "internalType": "uint256",
          "name": "feeUsd",
          "type": "uint256"
        }
      ],
      "name": "ClosePosition",
      "type": "event"
    },
    {
      "anonymous": false,
      "inputs": [
        {
          "indexed": false,
          "internalType": "bytes32",
          "name": "key",
          "type": "bytes32"
        },
        {
          "indexed": true,
          "internalType": "address",
          "name": "account",
          "type": "address"
        },
        {
          "indexed": true,
          "internalType": "address",
          "name": "indexToken",
          "type": "address"
        },
        {
          "indexed": false,
          "internalType": "bool",
          "name": "isLong",
          "type": "bool"
        },
        {
          "indexed": false,
          "internalType": "uint256",
          "name": "posId",
          "type": "uint256"
        },
        {
          "indexed": false,
          "internalType": "int256",
          "name": "realisedPnl",
          "type": "int256"
        },
        {
          "indexed": false,
          "internalType": "uint256[7]",
          "name": "posData",
          "type": "uint256[7]"
        }
      ],
      "name": "DecreasePosition",
      "type": "event"
    },
    {
      "anonymous": false,
      "inputs": [
        {
          "indexed": false,
          "internalType": "bytes32",
          "name": "key",
          "type": "bytes32"
        },
        {
          "indexed": true,
          "internalType": "address",
          "name": "account",
          "type": "address"
        },
        {
          "indexed": true,
          "internalType": "address",
          "name": "indexToken",
          "type": "address"
        },
        {
          "indexed": false,
          "internalType": "bool",
          "name": "isLong",
          "type": "bool"
        },
        {
          "indexed": false,
          "internalType": "uint256",
          "name": "posId",
          "type": "uint256"
        },
        {
          "indexed": false,
          "internalType": "uint256[7]",
          "name": "posData",
          "type": "uint256[7]"
        }
      ],
      "name": "IncreasePosition",
      "type": "event"
    },
    {
      "anonymous": false,
      "inputs": [
        {
          "indexed": false,
          "internalType": "bytes32",
          "name": "key",
          "type": "bytes32"
        },
        {
          "indexed": false,
          "internalType": "int256",
          "name": "realisedPnl",
          "type": "int256"
        },
        {
          "indexed": false,
          "internalType": "uint256",
          "name": "markPrice",
          "type": "uint256"
        },
        {
          "indexed": false,
          "internalType": "uint256",
          "name": "feeUsd",
          "type": "uint256"
        }
      ],
      "name": "LiquidatePosition",
      "type": "event"
    },
    {
      "anonymous": false,
      "inputs": [
        {
          "indexed": true,
          "internalType": "uint256",
          "name": "fee",
          "type": "uint256"
        }
      ],
      "name": "SetDepositFee",
      "type": "event"
    },
    {
      "inputs": [],
      "name": "BASIS_POINTS_DIVISOR",
      "outputs": [
        {
          "internalType": "uint256",
          "name": "",
          "type": "uint256"
        }
      ],
      "stateMutability": "view",
      "type": "function"
    },
    {
      "inputs": [],
      "name": "DEFAULT_FUNDING_RATE_FACTOR",
      "outputs": [
        {
          "internalType": "uint256",
          "name": "",
          "type": "uint256"
        }
      ],
      "stateMutability": "view",
      "type": "function"
    },
    {
      "inputs": [],
      "name": "DEFAULT_MAX_OPEN_INTEREST",
      "outputs": [
        {
          "internalType": "uint256",
          "name": "",
          "type": "uint256"
        }
      ],
      "stateMutability": "view",
      "type": "function"
    },
    {
      "inputs": [],
      "name": "DEFAULT_VLP_PRICE",
      "outputs": [
        {
          "internalType": "uint256",
          "name": "",
          "type": "uint256"
        }
      ],
      "stateMutability": "view",
      "type": "function"
    },
    {
      "inputs": [],
      "name": "FUNDING_RATE_PRECISION",
      "outputs": [
        {
          "internalType": "uint256",
          "name": "",
          "type": "uint256"
        }
      ],
      "stateMutability": "view",
      "type": "function"
    },
    {
      "inputs": [],
      "name": "LIQUIDATE_FEE_EXCEED",
      "outputs": [
        {
          "internalType": "uint256",
          "name": "",
          "type": "uint256"
        }
      ],
      "stateMutability": "view",
      "type": "function"
    },
    {
      "inputs": [],
      "name": "LIQUIDATE_NONE_EXCEED",
      "outputs": [
        {
          "internalType": "uint256",
          "name": "",
          "type": "uint256"
        }
      ],
      "stateMutability": "view",
      "type": "function"
    },
    {
      "inputs": [],
      "name": "LIQUIDATE_THRESHOLD_EXCEED",
      "outputs": [
        {
          "internalType": "uint256",
          "name": "",
          "type": "uint256"
        }
      ],
      "stateMutability": "view",
      "type": "function"
    },
    {
      "inputs": [],
      "name": "MAX_COOLDOWN_DURATION",
      "outputs": [
        {
          "internalType": "uint256",
          "name": "",
          "type": "uint256"
        }
      ],
      "stateMutability": "view",
      "type": "function"
    },
    {
      "inputs": [],
      "name": "MAX_DELTA_TIME",
      "outputs": [
        {
          "internalType": "uint256",
          "name": "",
          "type": "uint256"
        }
      ],
      "stateMutability": "view",
      "type": "function"
    },
    {
      "inputs": [],
      "name": "MAX_DEPOSIT_FEE",
      "outputs": [
        {
          "internalType": "uint256",
          "name": "",
          "type": "uint256"
        }
      ],
      "stateMutability": "view",
      "type": "function"
    },
    {
      "inputs": [],
      "name": "MAX_FEE_BASIS_POINTS",
      "outputs": [
        {
          "internalType": "uint256",
          "name": "",
          "type": "uint256"
        }
      ],
      "stateMutability": "view",
      "type": "function"
    },
    {
      "inputs": [],
      "name": "MAX_FEE_REWARD_BASIS_POINTS",
      "outputs": [
        {
          "internalType": "uint256",
          "name": "",
          "type": "uint256"
        }
      ],
      "stateMutability": "view",
      "type": "function"
    },
    {
      "inputs": [],
      "name": "MAX_FUNDING_RATE_FACTOR",
      "outputs": [
        {
          "internalType": "uint256",
          "name": "",
          "type": "uint256"
        }
      ],
      "stateMutability": "view",
      "type": "function"
    },
    {
      "inputs": [],
      "name": "MAX_FUNDING_RATE_INTERVAL",
      "outputs": [
        {
          "internalType": "uint256",
          "name": "",
          "type": "uint256"
        }
      ],
      "stateMutability": "view",
      "type": "function"
    },
    {
      "inputs": [],
      "name": "MAX_LIQUIDATION_FEE_USD",
      "outputs": [
        {
          "internalType": "uint256",
          "name": "",
          "type": "uint256"
        }
      ],
      "stateMutability": "view",
      "type": "function"
    },
    {
      "inputs": [],
      "name": "MAX_STAKING_FEE",
      "outputs": [
        {
          "internalType": "uint256",
          "name": "",
          "type": "uint256"
        }
      ],
      "stateMutability": "view",
      "type": "function"
    },
    {
      "inputs": [],
      "name": "MAX_TOKENFARM_COOLDOWN_DURATION",
      "outputs": [
        {
          "internalType": "uint256",
          "name": "",
          "type": "uint256"
        }
      ],
      "stateMutability": "view",
      "type": "function"
    },
    {
      "inputs": [],
      "name": "MAX_TRIGGER_GAS_FEE",
      "outputs": [
        {
          "internalType": "uint256",
          "name": "",
          "type": "uint256"
        }
      ],
      "stateMutability": "view",
      "type": "function"
    },
    {
      "inputs": [],
      "name": "MAX_VESTING_DURATION",
      "outputs": [
        {
          "internalType": "uint256",
          "name": "",
          "type": "uint256"
        }
      ],
      "stateMutability": "view",
      "type": "function"
    },
    {
      "inputs": [],
      "name": "MIN_FEE_REWARD_BASIS_POINTS",
      "outputs": [
        {
          "internalType": "uint256",
          "name": "",
          "type": "uint256"
        }
      ],
      "stateMutability": "view",
      "type": "function"
    },
    {
      "inputs": [],
      "name": "MIN_FUNDING_RATE_INTERVAL",
      "outputs": [
        {
          "internalType": "uint256",
          "name": "",
          "type": "uint256"
        }
      ],
      "stateMutability": "view",
      "type": "function"
    },
    {
      "inputs": [],
      "name": "MIN_LEVERAGE",
      "outputs": [
        {
          "internalType": "uint256",
          "name": "",
          "type": "uint256"
        }
      ],
      "stateMutability": "view",
      "type": "function"
    },
    {
      "inputs": [],
      "name": "ORDER_FILLED",
      "outputs": [
        {
          "internalType": "uint8",
          "name": "",
          "type": "uint8"
        }
      ],
      "stateMutability": "view",
      "type": "function"
    },
    {
      "inputs": [],
      "name": "ORDER_NOT_FILLED",
      "outputs": [
        {
          "internalType": "uint8",
          "name": "",
          "type": "uint8"
        }
      ],
      "stateMutability": "view",
      "type": "function"
    },
    {
      "inputs": [],
      "name": "POSITION_LIMIT",
      "outputs": [
        {
          "internalType": "uint256",
          "name": "",
          "type": "uint256"
        }
      ],
      "stateMutability": "view",
      "type": "function"
    },
    {
      "inputs": [],
      "name": "POSITION_MARKET",
      "outputs": [
        {
          "internalType": "uint256",
          "name": "",
          "type": "uint256"
        }
      ],
      "stateMutability": "view",
      "type": "function"
    },
    {
      "inputs": [],
      "name": "POSITION_STOP_LIMIT",
      "outputs": [
        {
          "internalType": "uint256",
          "name": "",
          "type": "uint256"
        }
      ],
      "stateMutability": "view",
      "type": "function"
    },
    {
      "inputs": [],
      "name": "POSITION_STOP_MARKET",
      "outputs": [
        {
          "internalType": "uint256",
          "name": "",
          "type": "uint256"
        }
      ],
      "stateMutability": "view",
      "type": "function"
    },
    {
      "inputs": [],
      "name": "POSITION_TRAILING_STOP",
      "outputs": [
        {
          "internalType": "uint256",
          "name": "",
          "type": "uint256"
        }
      ],
      "stateMutability": "view",
      "type": "function"
    },
    {
      "inputs": [],
      "name": "PRICE_PRECISION",
      "outputs": [
        {
          "internalType": "uint256",
          "name": "",
          "type": "uint256"
        }
      ],
      "stateMutability": "view",
      "type": "function"
    },
    {
      "inputs": [],
      "name": "STAKING_PID_FOR_CHARGE_FEE",
      "outputs": [
        {
          "internalType": "uint8",
          "name": "",
          "type": "uint8"
        }
      ],
      "stateMutability": "view",
      "type": "function"
    },
    {
      "inputs": [],
      "name": "TRAILING_STOP_TYPE_AMOUNT",
      "outputs": [
        {
          "internalType": "uint256",
          "name": "",
          "type": "uint256"
        }
      ],
      "stateMutability": "view",
      "type": "function"
    },
    {
      "inputs": [],
      "name": "TRAILING_STOP_TYPE_PERCENT",
      "outputs": [
        {
          "internalType": "uint256",
          "name": "",
          "type": "uint256"
        }
      ],
      "stateMutability": "view",
      "type": "function"
    },
    {
      "inputs": [],
      "name": "VLP_DECIMALS",
      "outputs": [
        {
          "internalType": "uint256",
          "name": "",
          "type": "uint256"
        }
      ],
      "stateMutability": "view",
      "type": "function"
    },
    {
      "inputs": [],
      "name": "ZERO_ADDRESS",
      "outputs": [
        {
          "internalType": "address",
          "name": "",
          "type": "address"
        }
      ],
      "stateMutability": "view",
      "type": "function"
    },
    {
      "inputs": [
        {
          "internalType": "address",
          "name": "_account",
          "type": "address"
        },
        {
          "internalType": "address",
          "name": "_indexToken",
          "type": "address"
        },
        {
          "internalType": "bool",
          "name": "_isLong",
          "type": "bool"
        },
        {
          "internalType": "uint256",
          "name": "_posId",
          "type": "uint256"
        }
      ],
      "name": "emitClosePositionEvent",
      "outputs": [],
      "stateMutability": "nonpayable",
      "type": "function"
    },
    {
      "inputs": [
        {
          "internalType": "address",
          "name": "_account",
          "type": "address"
        },
        {
          "internalType": "address",
          "name": "_indexToken",
          "type": "address"
        },
        {
          "internalType": "bool",
          "name": "_isLong",
          "type": "bool"
        },
        {
          "internalType": "uint256",
          "name": "_posId",
          "type": "uint256"
        },
        {
          "internalType": "uint256",
          "name": "_sizeDelta",
          "type": "uint256"
        },
        {
          "internalType": "uint256",
          "name": "_fee",
          "type": "uint256"
        }
      ],
      "name": "emitDecreasePositionEvent",
      "outputs": [],
      "stateMutability": "nonpayable",
      "type": "function"
    },
    {
      "inputs": [
        {
          "internalType": "address",
          "name": "_account",
          "type": "address"
        },
        {
          "internalType": "address",
          "name": "_indexToken",
          "type": "address"
        },
        {
          "internalType": "bool",
          "name": "_isLong",
          "type": "bool"
        },
        {
          "internalType": "uint256",
          "name": "_posId",
          "type": "uint256"
        },
        {
          "internalType": "uint256",
          "name": "_collateralDelta",
          "type": "uint256"
        },
        {
          "internalType": "uint256",
          "name": "_sizeDelta",
          "type": "uint256"
        },
        {
          "internalType": "uint256",
          "name": "_fee",
          "type": "uint256"
        }
      ],
      "name": "emitIncreasePositionEvent",
      "outputs": [],
      "stateMutability": "nonpayable",
      "type": "function"
    },
    {
      "inputs": [
        {
          "internalType": "address",
          "name": "_account",
          "type": "address"
        },
        {
          "internalType": "address",
          "name": "_indexToken",
          "type": "address"
        },
        {
          "internalType": "bool",
          "name": "_isLong",
          "type": "bool"
        },
        {
          "internalType": "uint256",
          "name": "_posId",
          "type": "uint256"
        }
      ],
      "name": "emitLiquidatePositionEvent",
      "outputs": [],
      "stateMutability": "nonpayable",
      "type": "function"
    },
    {
      "inputs": [
        {
          "internalType": "address",
          "name": "_account",
          "type": "address"
        },
        {
          "internalType": "address",
          "name": "_indexToken",
          "type": "address"
        },
        {
          "internalType": "bool",
          "name": "_isLong",
          "type": "bool"
        },
        {
          "internalType": "uint256",
          "name": "_posId",
          "type": "uint256"
        },
        {
          "internalType": "bool",
          "name": "_raise",
          "type": "bool"
        }
      ],
      "name": "validateConfirmDelay",
      "outputs": [
        {
          "internalType": "bool",
          "name": "",
          "type": "bool"
        }
      ],
      "stateMutability": "view",
      "type": "function"
    },
    {
      "inputs": [
        {
          "internalType": "address",
          "name": "_account",
          "type": "address"
        },
        {
          "internalType": "address",
          "name": "_indexToken",
          "type": "address"
        },
        {
          "internalType": "bool",
          "name": "_isLong",
          "type": "bool"
        },
        {
          "internalType": "uint256",
          "name": "_posId",
          "type": "uint256"
        },
        {
          "internalType": "bool",
          "name": "_raise",
          "type": "bool"
        }
      ],
      "name": "validateDecreasePosition",
      "outputs": [
        {
          "internalType": "bool",
          "name": "",
          "type": "bool"
        }
      ],
      "stateMutability": "view",
      "type": "function"
    },
    {
      "inputs": [
        {
          "internalType": "address",
          "name": "_account",
          "type": "address"
        },
        {
          "internalType": "address",
          "name": "_indexToken",
          "type": "address"
        },
        {
          "internalType": "bool",
          "name": "_isLong",
          "type": "bool"
        },
        {
          "internalType": "uint256",
          "name": "_posId",
          "type": "uint256"
        },
        {
          "internalType": "bool",
          "name": "_raise",
          "type": "bool"
        }
      ],
      "name": "validateLiquidation",
      "outputs": [
        {
          "internalType": "uint256",
          "name": "",
          "type": "uint256"
        },
        {
          "internalType": "uint256",
          "name": "",
          "type": "uint256"
        }
      ],
      "stateMutability": "view",
      "type": "function"
    },
    {
      "inputs": [
        {
          "internalType": "bool",
          "name": "_isLong",
          "type": "bool"
        },
        {
          "internalType": "address",
          "name": "_indexToken",
          "type": "address"
        },
        {
          "internalType": "enum OrderType",
          "name": "_orderType",
          "type": "uint8"
        },
        {
          "internalType": "uint256[]",
          "name": "_params",
          "type": "uint256[]"
        },
        {
          "internalType": "bool",
          "name": "_raise",
          "type": "bool"
        }
      ],
      "name": "validatePosData",
      "outputs": [
        {
          "internalType": "bool",
          "name": "",
          "type": "bool"
        }
      ],
      "stateMutability": "view",
      "type": "function"
    },
    {
      "inputs": [
        {
          "internalType": "uint256",
          "name": "_size",
          "type": "uint256"
        },
        {
          "internalType": "uint256",
          "name": "_collateral",
          "type": "uint256"
        }
      ],
      "name": "validateSizeCollateralAmount",
      "outputs": [],
      "stateMutability": "pure",
      "type": "function"
    },
    {
      "inputs": [
        {
          "internalType": "address",
          "name": "_account",
          "type": "address"
        },
        {
          "internalType": "address",
          "name": "_indexToken",
          "type": "address"
        },
        {
          "internalType": "bool",
          "name": "_isLong",
          "type": "bool"
        },
        {
          "internalType": "uint256",
          "name": "_posId",
          "type": "uint256"
        },
        {
          "internalType": "uint256[]",
          "name": "_params",
          "type": "uint256[]"
        }
      ],
      "name": "validateTrailingStopInputData",
      "outputs": [
        {
          "internalType": "bool",
          "name": "",
          "type": "bool"
        }
      ],
      "stateMutability": "view",
      "type": "function"
    },
    {
      "inputs": [
        {
          "internalType": "address",
          "name": "_account",
          "type": "address"
        },
        {
          "internalType": "address",
          "name": "_indexToken",
          "type": "address"
        },
        {
          "internalType": "bool",
          "name": "_isLong",
          "type": "bool"
        },
        {
          "internalType": "uint256",
          "name": "_posId",
          "type": "uint256"
        },
        {
          "internalType": "bool",
          "name": "_raise",
          "type": "bool"
        }
      ],
      "name": "validateTrailingStopPrice",
      "outputs": [
        {
          "internalType": "bool",
          "name": "",
          "type": "bool"
        }
      ],
      "stateMutability": "view",
      "type": "function"
    },
    {
      "inputs": [
        {
          "internalType": "address",
          "name": "_account",
          "type": "address"
        },
        {
          "internalType": "address",
          "name": "_indexToken",
          "type": "address"
        },
        {
          "internalType": "bool",
          "name": "_isLong",
          "type": "bool"
        },
        {
          "internalType": "uint256",
          "name": "_posId",
          "type": "uint256"
        }
      ],
      "name": "validateTrigger",
      "outputs": [
        {
          "internalType": "uint8",
          "name": "",
          "type": "uint8"
        }
      ],
      "stateMutability": "view",
      "type": "function"
    }
  ],
  "bytecode": "0x60a06040523480156200001157600080fd5b50604051620032f0380380620032f08339810160408190526200003491620000fe565b6200004a83620000d260201b620024951760201c565b6200009b5760405162461bcd60e51b815260206004820152601860248201527f7661756c74206164647265737320697320696e76616c69640000000000000000604482015260640160405180910390fd5b6001600160a01b03928316608052600080549284166001600160a01b03199384161790556001805491909316911617905562000148565b6001600160a01b03163b151590565b80516001600160a01b0381168114620000f957600080fd5b919050565b6000806000606084860312156200011457600080fd5b6200011f84620000e1565b92506200012f60208501620000e1565b91506200013f60408501620000e1565b90509250925092565b608051613131620001bf600039600081816104f10152818161097d01528181610c3601528181610f0b01528181610fdd0152818161118001528181611252015281816113e101528181611aa101528181611c890152818161204e015281816121200152818161226c015261233e01526131316000f3fe608060405234801561001057600080fd5b50600436106102a05760003560e01c80636e8ffe6211610167578063c6d87dd5116100ce578063d94265c311610087578063d94265c3146104ac578063dac05497146104a4578063e7554f03146103c6578063eeffe469146104bf578063f4988279146102f7578063fce28c10146104c857600080fd5b8063c6d87dd5146102ff578063c8cbdd34146102ca578063cb831cea1461045a578063cf1d50a514610482578063d1636ae714610495578063d1e6a272146104a457600080fd5b806396279aba1161012057806396279aba1461042f578063a6b4f2ce14610437578063abd78139146103c6578063b194d13d14610308578063bb3958a01461043f578063c201cf191461045257600080fd5b80636e8ffe62146103e25780637cd0814b146103ea57806383508881146103f55780638a39735a146102ff5780638e8a089f1461040857806395082d251461041b57600080fd5b806348626a531161020b57806355e79af6116101c457806355e79af6146103b35780635962e8af146103c65780635dceb8d3146103ce57806365d7aae1146102ca5780636be23255146102f75780636be6026b146103d857600080fd5b806348626a53146103455780634befe2ca14610358578063538ba4f91461036157806353eec2bd146103815780635556f76a14610396578063559e2f1f146103a957600080fd5b80632a62b52d1161025d5780632a62b52d146102ff5780632ab128721461030857806333d44cb41461032257806334c1557d146102ff57806335c0fbb91461032a5780633d8b95951461033d57600080fd5b806304799c99146102a557806307c58752146102c2578063126082cf146102ca5780631852bf32146102d45780631a465e86146102f75780631e9049cf146102a5575b600080fd5b6102af6202a30081565b6040519081526020015b60405180910390f35b6102af6104d1565b6102af620186a081565b6102e76102e2366004612997565b6104ec565b60405190151581526020016102b9565b6102af600181565b6102af61271081565b610310600181565b60405160ff90911681526020016102b9565b6102af601281565b6102e7610338366004612997565b610978565b610310600081565b6103106103533660046129ff565b610c31565b6102af61138881565b610369600081565b6040516001600160a01b0390911681526020016102b9565b61039461038f366004612a50565b610e94565b005b6103946103a43660046129ff565b610f00565b6102af6224ea0081565b6103946103c13660046129ff565b611175565b6102af600081565b6102af6201518081565b6102af620f424081565b6102af606481565b6102af63039ada0081565b6102e7610403366004612b66565b6113dc565b6102e7610416366004612be5565b61182f565b6102af6c0c9f2c9cd04674edea4000000081565b6102af600381565b6102af600481565b6102e761044d366004612997565b611a9c565b6102af611c66565b61046d610468366004612997565b611c82565b604080519283526020830191909152016102b9565b610394610490366004612c65565b612043565b6102af67016345785d8a000081565b6102af600281565b6103946104ba366004612cd3565b612261565b6102af61c35081565b6102af610e1081565b6104e96c0c9f2c9cd04674edea400000006064612d4e565b81565b6000807f00000000000000000000000000000000000000000000000000000000000000006001600160a01b031663a272683c888888886040518563ffffffff1660e01b81526004016105419493929190612d6d565b6102c06040518083038186803b15801561055a57600080fd5b505afa15801561056e573d6000803e3d6000fd5b505050506040513d601f19601f820116820180604052508101906105929190612e95565b5050600080546101208301516060840151604051631a9ef22d60e21b81526001600160a01b038c811660048301526024820193909352604481019190915289151560648201529394509192839290911690636a7bc8b490608401604080518083038186803b15801561060357600080fd5b505afa158015610617573d6000803e3d6000fd5b505050506040513d601f19601f8201168201806040525081019061063b9190612f60565b50905080156109035760008360c001511180156106ea5750600160009054906101000a90046001600160a01b03166001600160a01b031663cd8dd99b6040518163ffffffff1660e01b815260040160206040518083038186803b1580156106a157600080fd5b505afa1580156106b5573d6000803e3d6000fd5b505050506040513d601f19601f820116820180604052508101906106d99190612f8e565b6106e39042612fa7565b8360c00151105b156106f85760019150610908565b600080546040516331a4bf1d60e21b81526001600160a01b038b811660048301529091169063c692fc749060240160206040518083038186803b15801561073e57600080fd5b505afa158015610752573d6000803e3d6000fd5b505050506040513d601f19601f820116820180604052508101906107769190612f8e565b905087801561083257508360e00151600160009054906101000a90046001600160a01b03166001600160a01b03166361695ebe6040518163ffffffff1660e01b815260040160206040518083038186803b1580156107d357600080fd5b505afa1580156107e7573d6000803e3d6000fd5b505050506040513d601f19601f8201168201806040525081019061080b9190612f8e565b61081890620186a0612fbe565b6108229190612d4e565b61082f620186a083612d4e565b10155b806108f35750871580156108f357508360e00151600160009054906101000a90046001600160a01b03166001600160a01b03166361695ebe6040518163ffffffff1660e01b815260040160206040518083038186803b15801561089457600080fd5b505afa1580156108a8573d6000803e3d6000fd5b505050506040513d601f19601f820116820180604052508101906108cc9190612f8e565b6108d990620186a0612fa7565b6108e39190612d4e565b6108f0620186a083612d4e565b11155b156108fd57600192505b50610908565b600191505b841561096a578161096a5760405162461bcd60e51b815260206004820152602160248201527f6e6f7420616c6c6f77656420746f20636c6f73652074686520706f736974696f6044820152603760f91b60648201526084015b60405180910390fd5b509150505b95945050505050565b6000807f00000000000000000000000000000000000000000000000000000000000000006001600160a01b031663a272683c888888886040518563ffffffff1660e01b81526004016109cd9493929190612d6d565b6102c06040518083038186803b1580156109e657600080fd5b505afa1580156109fa573d6000803e3d6000fd5b505050506040513d601f19601f82011682018060405250810190610a1e9190612e95565b50600080546040516331a4bf1d60e21b81526001600160a01b038b81166004830152939550919350919091169063c692fc749060240160206040518083038186803b158015610a6c57600080fd5b505afa158015610a80573d6000803e3d6000fd5b505050506040513d601f19601f82011682018060405250810190610aa49190612f8e565b905060008615610b015760c0830151610ad2578260a001518360e00151610acb9190612fbe565b9050610b50565b60a0830151610ae490620186a0612fa7565b620186a08460e00151610af79190612d4e565b610acb9190612fd6565b60c0830151610b1e578260a001518360e00151610acb9190612fa7565b60a0830151610b3090620186a0612fbe565b620186a08460e00151610b439190612d4e565b610b4d9190612fd6565b90505b6000878015610b715750600184516003811115610b6f57610b6f612ff8565b145b8015610b81575060048460800151145b8015610b8d5750828211155b15610b9a57506001610bdf565b87158015610bba5750600184516003811115610bb857610bb8612ff8565b145b8015610bca575060048460800151145b8015610bd65750828210155b15610bdf575060015b8515610c245780610c245760405162461bcd60e51b815260206004820152600f60248201526e1c1c9a58d9481a5b98dbdc9c9958dd608a1b6044820152606401610961565b9998505050505050505050565b6000807f00000000000000000000000000000000000000000000000000000000000000006001600160a01b031663a272683c878787876040518563ffffffff1660e01b8152600401610c869493929190612d6d565b6102c06040518083038186803b158015610c9f57600080fd5b505afa158015610cb3573d6000803e3d6000fd5b505050506040513d601f19601f82011682018060405250810190610cd79190612e95565b50600080546040516331a4bf1d60e21b81526001600160a01b038a81166004830152939550919350919091169063c692fc749060240160206040518083038186803b158015610d2557600080fd5b505afa158015610d39573d6000803e3d6000fd5b505050506040513d601f19601f82011682018060405250810190610d5d9190612f8e565b90506000600183516003811115610d7657610d76612ff8565b1415610e8557600183608001511415610dcf57858015610d9a575081836020015110155b15610da757506001610e89565b85158015610db9575081836020015111155b15610dc657506001610e89565b5060005b610e89565b600283608001511415610e1657858015610ded5750818360e0015111155b15610dfa57506001610e89565b85158015610db95750818360e0015110610dc657506001610e89565b600383608001511415610e3e57858015610ded5750818360e0015111610dfa57506001610e89565b600483608001511415610dca57858015610e5c5750818360e0015110155b15610e6957506001610e89565b85158015610db95750818360e0015111610dc657506001610e89565b5060005b979650505050505050565b80821015610efc5760405162461bcd60e51b815260206004820152602f60248201527f706f736974696f6e2073697a652073686f756c6420626520677265617465722060448201526e1d1a185b8818dbdb1b185d195c985b608a1b6064820152608401610961565b5050565b336001600160a01b037f00000000000000000000000000000000000000000000000000000000000000001614610f485760405162461bcd60e51b81526004016109619061300e565b6000610f56858585856124a4565b600080546040516331a4bf1d60e21b81526001600160a01b0388811660048301529394509192169063c692fc749060240160206040518083038186803b158015610f9f57600080fd5b505afa158015610fb3573d6000803e3d6000fd5b505050506040513d601f19601f82011682018060405250810190610fd79190612f8e565b905060007f00000000000000000000000000000000000000000000000000000000000000006001600160a01b031663a272683c888888886040518563ffffffff1660e01b815260040161102d9493929190612d6d565b6102c06040518083038186803b15801561104657600080fd5b505afa15801561105a573d6000803e3d6000fd5b505050506040513d601f19601f8201168201806040525081019061107e9190612e95565b505060015461012082015160a08301516040516393ac4ef760e01b81529394506000936001600160a01b03909316926393ac4ef7926110ca928d928d928d92909182919060040161303d565b60206040518083038186803b1580156110e257600080fd5b505afa1580156110f6573d6000803e3d6000fd5b505050506040513d601f19601f8201168201806040525081019061111a9190612f8e565b60408084015181518781526020810191909152908101859052606081018290529091507f78326ceac35ccd740b89e2e232110ab4188bb26a686828e8f90657421b30e7f4906080015b60405180910390a15050505050505050565b336001600160a01b037f000000000000000000000000000000000000000000000000000000000000000016146111bd5760405162461bcd60e51b81526004016109619061300e565b60006111cb858585856124a4565b600080546040516331a4bf1d60e21b81526001600160a01b0388811660048301529394509192169063c692fc749060240160206040518083038186803b15801561121457600080fd5b505afa158015611228573d6000803e3d6000fd5b505050506040513d601f19601f8201168201806040525081019061124c9190612f8e565b905060007f00000000000000000000000000000000000000000000000000000000000000006001600160a01b031663a272683c888888886040518563ffffffff1660e01b81526004016112a29493929190612d6d565b6102c06040518083038186803b1580156112bb57600080fd5b505afa1580156112cf573d6000803e3d6000fd5b505050506040513d601f19601f820116820180604052508101906112f39190612e95565b505060015461012082015160a08301516040516393ac4ef760e01b81529394506000936001600160a01b03909316926393ac4ef79261133f928d928d928d92909182919060040161303d565b60206040518083038186803b15801561135757600080fd5b505afa15801561136b573d6000803e3d6000fd5b505050506040513d601f19601f8201168201806040525081019061138f9190612f8e565b60408084015181518781526020810191909152908101859052606081018290529091507fa496283be5d3efe07068081267c3d3ec687020302bd7ab9f3375ecdbb8d9e15a90608001611163565b6000807f00000000000000000000000000000000000000000000000000000000000000006001600160a01b031663a272683c888888886040518563ffffffff1660e01b81526004016114319493929190612d6d565b6102c06040518083038186803b15801561144a57600080fd5b505afa15801561145e573d6000803e3d6000fd5b505050506040513d601f19601f820116820180604052508101906114829190612e95565b5050600080546040516331a4bf1d60e21b81526001600160a01b038a811660048301529394509192169063c692fc749060240160206040518083038186803b1580156114cd57600080fd5b505afa1580156114e1573d6000803e3d6000fd5b505050506040513d601f19601f820116820180604052508101906115059190612f8e565b905060008460018151811061151c5761151c613073565b602002602001015111801561155057508161012001518460018151811061154557611545613073565b602002602001015111155b6115b75760405162461bcd60e51b815260206004820152603260248201527f747261696c696e672073697a652073686f756c6420626520736d616c6c6572206044820152717468616e20706f736974696f6e2073697a6560701b6064820152608401610961565b8515611670576000846004815181106115d2576115d2613073565b602002602001015111801561160157506000846003815181106115f7576115f7613073565b6020026020010151115b80156116275750808460038151811061161c5761161c613073565b602002602001015111155b61166b5760405162461bcd60e51b8152602060048201526015602482015274696e76616c696420747261696c696e67206461746160581b6044820152606401610961565b61171e565b60008460048151811061168557611685613073565b60200260200101511180156116b457506000846003815181106116aa576116aa613073565b6020026020010151115b80156116da575080846003815181106116cf576116cf613073565b602002602001015110155b61171e5760405162461bcd60e51b8152602060048201526015602482015274696e76616c696420747261696c696e67206461746160581b6044820152606401610961565b60018460028151811061173357611733613073565b602002602001015114156117b257620186a08460048151811061175857611758613073565b6020026020010151106117ad5760405162461bcd60e51b815260206004820152601860248201527f70657263656e742063616e7420657863656564203130302500000000000000006044820152606401610961565b611821565b85156118215780846004815181106117cc576117cc613073565b6020026020010151106118215760405162461bcd60e51b815260206004820152601d60248201527f7374657020616d6f756e742063616e74206578636565642070726963650000006044820152606401610961565b506001979650505050505050565b60008060008460038151811061184757611847613073565b60200260200101511115611a43578615611a3c5760015b85600481111561187057611870612ff8565b148015611897575060008460008151811061188d5761188d613073565b6020026020010151115b156118a457506001611a47565b60028560048111156118b8576118b8612ff8565b1480156118df57506000846001815181106118d5576118d5613073565b6020026020010151115b156118ec57506001611a47565b600385600481111561190057611900612ff8565b148015611927575060008460008151811061191d5761191d613073565b6020026020010151115b801561194d575060008460018151811061194357611943613073565b6020026020010151115b1561195a57506001611a47565b600085600481111561196e5761196e612ff8565b1415611a3757611a33878560008151811061198b5761198b613073565b6020026020010151866001815181106119a6576119a6613073565b60209081029190910101516000546040516331a4bf1d60e21b81526001600160a01b038c811660048301529091169063c692fc749060240160206040518083038186803b1580156119f657600080fd5b505afa158015611a0a573d6000803e3d6000fd5b505050506040513d601f19601f82011682018060405250810190611a2e9190612f8e565b612502565b5060015b611a47565b600161185e565b5060015b8215611a925780611a925760405162461bcd60e51b8152602060048201526015602482015274696e76616c696420706f736974696f6e206461746160581b6044820152606401610961565b9695505050505050565b6000807f00000000000000000000000000000000000000000000000000000000000000006001600160a01b031663a272683c888888886040518563ffffffff1660e01b8152600401611af19493929190612d6d565b6102c06040518083038186803b158015611b0a57600080fd5b505afa158015611b1e573d6000803e3d6000fd5b505050506040513d601f19601f82011682018060405250810190611b429190612e95565b925050506000816000015115611c0f57600160009054906101000a90046001600160a01b03166001600160a01b0316633ea479ae6040518163ffffffff1660e01b815260040160206040518083038186803b158015611ba057600080fd5b505afa158015611bb4573d6000803e3d6000fd5b505050506040513d601f19601f82011682018060405250810190611bd89190612f8e565b8260600151611be79190612fbe565b4210158015611bfa575060008260200151115b15611c0757506001611c13565b506000611c13565b5060005b8315610e895780610e895760405162461bcd60e51b815260206004820152601f60248201527f6f72646572206973207374696c6c20696e2064656c61792070656e64696e67006044820152606401610961565b6104e96c0c9f2c9cd04674edea400000006402540be400612d4e565b60008060007f00000000000000000000000000000000000000000000000000000000000000006001600160a01b031663a272683c898989896040518563ffffffff1660e01b8152600401611cd99493929190612d6d565b6102c06040518083038186803b158015611cf257600080fd5b505afa158015611d06573d6000803e3d6000fd5b505050506040513d601f19601f82011682018060405250810190611d2a9190612e95565b505060608101519091501561203057600080546101208301516060840151604051631a9ef22d60e21b81526001600160a01b038c8116600483015260248201939093526044810191909152891515606482015283929190911690636a7bc8b490608401604080518083038186803b158015611da457600080fd5b505afa158015611db8573d6000803e3d6000fd5b505050506040513d601f19601f82011682018060405250810190611ddc9190612f60565b915091506000600160009054906101000a90046001600160a01b03166001600160a01b03166393ac4ef78c8c8c8861012001518961012001518a60a001516040518763ffffffff1660e01b8152600401611e3b9695949392919061303d565b60206040518083038186803b158015611e5357600080fd5b505afa158015611e67573d6000803e3d6000fd5b505050506040513d601f19601f82011682018060405250810190611e8b9190612f8e565b905082158015611e9e5750818460800151105b15611f00578615611ef15760405162461bcd60e51b815260206004820152601f60248201527f5661756c743a206c6f737365732065786365656420636f6c6c61746572616c006044820152606401610961565b60019550935061203992505050565b608084015183611f1d57828560800151611f1a9190612fa7565b90505b612710856101200151611f309190612d4e565b60005460405163c038661160e01b81526001600160a01b038e811660048301529091169063c03866119060240160206040518083038186803b158015611f7557600080fd5b505afa158015611f89573d6000803e3d6000fd5b505050506040513d601f19601f82011682018060405250810190611fad9190612f8e565b8660800151611fbc9190612d4e565b10156120105787156120105760405162461bcd60e51b815260206004820152601b60248201527f5661756c743a206d61784c6576657261676520657863656564656400000000006044820152606401610961565b61202281866101200151848e8c6125dd565b965096505050505050612039565b60008092509250505b9550959350505050565b336001600160a01b037f0000000000000000000000000000000000000000000000000000000000000000161461208b5760405162461bcd60e51b81526004016109619061300e565b6000612099888888886124a4565b600080546040516331a4bf1d60e21b81526001600160a01b038b811660048301529394509192169063c692fc749060240160206040518083038186803b1580156120e257600080fd5b505afa1580156120f6573d6000803e3d6000fd5b505050506040513d601f19601f8201168201806040525081019061211a9190612f8e565b905060007f00000000000000000000000000000000000000000000000000000000000000006001600160a01b031663a272683c8b8b8b8b6040518563ffffffff1660e01b81526004016121709493929190612d6d565b6102c06040518083038186803b15801561218957600080fd5b505afa15801561219d573d6000803e3d6000fd5b505050506040513d601f19601f820116820180604052508101906121c19190612e95565b50509050886001600160a01b03168a6001600160a01b03167feb1076c971582ec23bbef7b9d07d18966233a51537f185d5c1ead8ae9569ffcd858b8b6040518060e001604052808d81526020018c815260200188610100015181526020018860a001518152602001886060015181526020018981526020018b81525060405161224d94939291906130ac565b60405180910390a350505050505050505050565b336001600160a01b037f000000000000000000000000000000000000000000000000000000000000000016146122a95760405162461bcd60e51b81526004016109619061300e565b60006122b7878787876124a4565b600080546040516331a4bf1d60e21b81526001600160a01b038a811660048301529394509192169063c692fc749060240160206040518083038186803b15801561230057600080fd5b505afa158015612314573d6000803e3d6000fd5b505050506040513d601f19601f820116820180604052508101906123389190612f8e565b905060007f00000000000000000000000000000000000000000000000000000000000000006001600160a01b031663a272683c8a8a8a8a6040518563ffffffff1660e01b815260040161238e9493929190612d6d565b6102c06040518083038186803b1580156123a757600080fd5b505afa1580156123bb573d6000803e3d6000fd5b505050506040513d601f19601f820116820180604052508101906123df9190612e95565b5050905060008161012001518683608001516123fb9190612d4e565b6124059190612fd6565b9050886001600160a01b03168a6001600160a01b03167f092c69bd88543a1ad347acc232b03f9fbd9d55fb4aa02c49cef5443afaf575b4868b8b87604001516040518060e001604052808981526020018e81526020018a610100015181526020018a60a0015181526020018a6060015181526020018b81526020018d81525060405161224d9594939291906130d0565b6001600160a01b03163b151590565b6040516bffffffffffffffffffffffff19606086811b8216602084015285901b16603482015282151560f81b604882015260498101829052600090606901604051602081830303815290604052805190602001209050949350505050565b831561257257620186a06125168382612fbe565b6125209085612d4e565b61252a9190612fd6565b81111561256d5760405162461bcd60e51b81526020600482015260116024820152701cdb1a5c1c1859d948195e18d959591959607a1b6044820152606401610961565b6125d7565b80620186a06125818482612fa7565b61258b9086612d4e565b6125959190612fd6565b11156125d75760405162461bcd60e51b81526020600482015260116024820152701cdb1a5c1c1859d948195e18d959591959607a1b6044820152606401610961565b50505050565b600080848710156126415782156126365760405162461bcd60e51b815260206004820152601d60248201527f5661756c743a20666565732065786365656420636f6c6c61746572616c0000006044820152606401610961565b506001905085612039565b600160009054906101000a90046001600160a01b03166001600160a01b031663174d26946040518163ffffffff1660e01b815260040160206040518083038186803b15801561268f57600080fd5b505afa1580156126a3573d6000803e3d6000fd5b505050506040513d601f19601f820116820180604052508101906126c79190612f8e565b6126d19086612fbe565b8710156127435782156127385760405162461bcd60e51b815260206004820152602960248201527f5661756c743a206c69717569646174696f6e20666565732065786365656420636044820152681bdb1b185d195c985b60ba1b6064820152608401610961565b506001905083612039565b6001546040516343bbf20f60e11b81526001600160a01b038681166004830152620186a0921690638777e41e9060240160206040518083038186803b15801561278b57600080fd5b505afa15801561279f573d6000803e3d6000fd5b505050506040513d601f19601f820116820180604052508101906127c39190612f8e565b6127d090620186a0612fa7565b6127da9088612d4e565b6127e49190612fd6565b600160009054906101000a90046001600160a01b03166001600160a01b031663174d26946040518163ffffffff1660e01b815260040160206040518083038186803b15801561283257600080fd5b505afa158015612846573d6000803e3d6000fd5b505050506040513d601f19601f8201168201806040525081019061286a9190612f8e565b6128749087612fbe565b61287e9089612fa7565b10156129625782156128d25760405162461bcd60e51b815260206004820152601c60248201527f5661756c743a206d61785468726573686f6c64206578636565646564000000006044820152606401610961565b600154604080516305d349a560e21b815290516002926001600160a01b03169163174d2694916004808301926020929190829003018186803b15801561291757600080fd5b505afa15801561292b573d6000803e3d6000fd5b505050506040513d601f19601f8201168201806040525081019061294f9190612f8e565b6129599087612fbe565b91509150612039565b50600096939550929350505050565b6001600160a01b038116811461298657600080fd5b50565b801515811461298657600080fd5b600080600080600060a086880312156129af57600080fd5b85356129ba81612971565b945060208601356129ca81612971565b935060408601356129da81612989565b92506060860135915060808601356129f181612989565b809150509295509295909350565b60008060008060808587031215612a1557600080fd5b8435612a2081612971565b93506020850135612a3081612971565b92506040850135612a4081612989565b9396929550929360600135925050565b60008060408385031215612a6357600080fd5b50508035926020909101359150565b634e487b7160e01b600052604160045260246000fd5b604051610100810167ffffffffffffffff81118282101715612aac57612aac612a72565b60405290565b604051610140810167ffffffffffffffff81118282101715612aac57612aac612a72565b600082601f830112612ae757600080fd5b8135602067ffffffffffffffff80831115612b0457612b04612a72565b8260051b604051601f19603f83011681018181108482111715612b2957612b29612a72565b604052938452858101830193838101925087851115612b4757600080fd5b83870191505b84821015610e8957813583529183019190830190612b4d565b600080600080600060a08688031215612b7e57600080fd5b8535612b8981612971565b94506020860135612b9981612971565b93506040860135612ba981612989565b925060608601359150608086013567ffffffffffffffff811115612bcc57600080fd5b612bd888828901612ad6565b9150509295509295909350565b600080600080600060a08688031215612bfd57600080fd5b8535612c0881612989565b94506020860135612c1881612971565b9350604086013560058110612c2c57600080fd5b9250606086013567ffffffffffffffff811115612c4857600080fd5b612c5488828901612ad6565b92505060808601356129f181612989565b600080600080600080600060e0888a031215612c8057600080fd5b8735612c8b81612971565b96506020880135612c9b81612971565b95506040880135612cab81612989565b969995985095966060810135965060808101359560a0820135955060c0909101359350915050565b60008060008060008060c08789031215612cec57600080fd5b8635612cf781612971565b95506020870135612d0781612971565b94506040870135612d1781612989565b959894975094956060810135955060808101359460a0909101359350915050565b634e487b7160e01b600052601160045260246000fd5b6000816000190483118215151615612d6857612d68612d38565b500290565b6001600160a01b03948516815292909316602083015215156040820152606081019190915260800190565b8051612da381612971565b919050565b60006101008284031215612dbb57600080fd5b612dc3612a88565b9050815160048110612dd457600080fd5b808252506020820151602082015260408201516040820152606082015160608201526080820151608082015260a082015160a082015260c082015160c082015260e082015160e082015292915050565b600060808284031215612e3657600080fd5b6040516080810181811067ffffffffffffffff82111715612e5957612e59612a72565b80604052508091508251612e6c81612989565b808252506020830151602082015260408301516040820152606083015160608201525092915050565b60008060008385036102c0811215612eac57600080fd5b61014080821215612ebc57600080fd5b612ec4612ab2565b9150612ecf86612d98565b8252612edd60208701612d98565b602083015260408601516040830152606086015160608301526080860151608083015260a086015160a083015260c086015160c083015260e086015160e0830152610100808701518184015250610120808701518184015250819450612f4587828801612da8565b93505050612f57856102408601612e24565b90509250925092565b60008060408385031215612f7357600080fd5b8251612f7e81612989565b6020939093015192949293505050565b600060208284031215612fa057600080fd5b5051919050565b600082821015612fb957612fb9612d38565b500390565b60008219821115612fd157612fd1612d38565b500190565b600082612ff357634e487b7160e01b600052601260045260246000fd5b500490565b634e487b7160e01b600052602160045260246000fd5b6020808252601590820152744f6e6c79207661756c74206861732061636365737360581b604082015260600190565b6001600160a01b03968716815294909516602085015291151560408401526060830152608082015260a081019190915260c00190565b634e487b7160e01b600052603260045260246000fd5b8060005b60078110156125d757815184526020938401939091019060010161308d565b848152831515602082015260408101839052610140810161096f6060830184613089565b858152841515602082015260408101849052606081018390526101608101611a92608083018461308956fea2646970667358221220e486d545e05a7bfe89ca62bb5ec73ac5a0f61d77a2281f7a372c71dd8fc8c95664736f6c63430008090033",
  "linkReferences": {},
  "deployedLinkReferences": {}
}